:1000000000800020BD010000491900000D1900000A
:100010000D1900000D1900000D1900000D19000048
:100020000D1900000D1900000D19000049190000FC
:10003000491900000D19000049190000FD180000C1
:100040004919000049190000491900004919000028
:100050004919000049190000491900004919000018
:100060004919000049190000491900004919000008
:1000700049190000491900004919000049190000F8
:1000800049190000491900004919000049190000E8
:1000900049190000491900004919000049190000D8
:1000A00049190000491900004919000049190000C8
:1000B00049190000491900004919000049190000B8
:1000C00049190000491900004919000049190000A8
:1000D0004919000049190000491900004919000098
:1000E0004919000049190000491900004919000088
:1000F000491900004922000049190000B9420000D6
:1001000049190000C52700004919000049190000DD
:100110004919000049190000491900004919000057
:100120004919000049190000491900004919000047
:100130004919000049190000491900004919000037
:100140004919000049190000491900004919000027
:100150004919000049190000491900004919000017
:1001600049190000752A00004919000049190000CA
:1001700049190000491900004919000049190000F7
:1001800049190000491900004919000049190000E7
:1001900049190000491900004919000049190000D7
:1001A00049190000491900004919000049190000C7
:1001B000491900004919000049190000574B4CF239
:1001C000205210B51A804DF628121A8000BF00BFC9
:1001D00001F0BEFB524B4FF010621A60514A9A6018
:1001E000514ADA60A3F53043203B1A6812F480725A
:1001F00004D14E490A604FF4A8521A604C4B1A7849
:10020000110703D51A7842F008021A70494B4A4C7C
:100210004A482A221A704A4A00239918A14203D256
:10022000195899500433F8E7464B474900228B424E
:1002300002D243F8042BFAE74448454900235A58B0
:100240001A500433B3F5DE7FF9D1424B424A802184
:1002500003F8011B9342FBD1404B3C4A1A60404BD0
:100260008A221A70A3F5805324225A70A0221A7091
:100270009A799207FCD59A79D406FCD4394A9379B5
:1002800003F00C03082B374BF9D103221A714022DB
:100290005A719A799006FCD5324A9179314B4906C8
:1002A000FBD5314A314911600221516020221A7078
:1002B0009A7902F00C020C2AFAD12D4B2D4A1A60C1
:1002C0002D4B4BF67F321A6000225A60072243F80A
:1002D000042C2A4AC3F80C2D62B601F055FC134BCE
:1002E0001B68DA0705D5264801F094FB254B264A02
:1002F0001A60264B1B785B0609D5224C224A2368DC
:10030000934204D11E4801F085FB0023236004F0D2
:1003100043FC01F023FB03F057FAFEE70E200540F3
:1003200030800440823F04000100002B14D00340C1
:1003300002D0074000E00740A490FF1F385F000094
:100340006087FF1FA490FF1FC896FF1F0082FF1F3A
:100350000000000000E400E05FE400E008ED00E0E1
:100360000050064000400640448004400000131145
:1003700004800440C010050014E000E000002020CC
:10038000414044041CE00340A5C3945A00F00740D8
:10039000FFFFFFFFFFFFFFFFFFFFFFFFFFFFFFFF6D
:1003A000FFFFFFFFFFFFFFFFFFFFFFFFFFFFFFFF5D
:1003B000FFFFFFFFFFFFFFFFFFFFFFFFFFFFFFFF4D
:1003C000FFFFFFFFFFFFFFFFFFFFFFFFFFFFFFFF3D
:1003D000FFFFFFFFFFFFFFFFFFFFFFFFFFFFFFFF2D
:1003E000FFFFFFFFFFFFFFFFFFFFFFFFFFFFFFFF1D
:1003F000FFFFFFFFFFFFFFFFFFFFFFFFFFFFFFFF0D
:10040000FFFFFFFFFFFFFFFFFFFFFFFFDEF9FFFF23
:1004100010B5054C237833B9044B13B10448AFF33E
:1004200000800123237010BDA490FF1F0000000076
:10043000385F000008B5064B1BB106480649AFF30C
:1004400000800648036813B1054B03B1984708BD07
:1004500000000000385F0000A890FF1FA490FF1F5D
:100460000000000038B50546094C23685B6820464B
:10047000084904229847204629460A22002303F00F
:10048000BBF9204603F0A8F90122034B1A7038BDCE
:10049000DC95FF1F785A00000992FF1F38B505460A
:1004A000094C23685B682046084904229847204687
:1004B00029460A22002303F09FF9204603F08CF915
:1004C0000122034B1A7038BDDC95FF1F805A0000D3
:1004D000E092FF1F38B50546094C23685B6820464B
:1004E000084904229847204629460A22002303F09F
:1004F00083F9204603F070F90122034B1A7038BDCE
:10050000DC95FF1F885A00000892FF1F38B505468A
:10051000094C23685B682046084904229847204616
:1005200029460A22002303F067F9204603F054F914
:100530000122034B1A7038BDDC95FF1F905A000052
:10054000B092FF1F10B588B003460C4604A81946A8
:1005500003F06CFA04A80A4903F0BCFA214603F040
:10056000C7FA0146684603F061FA04A803F0F4F9FB
:10057000009800F019FD684603F0EEF908B010BDD0
:10058000985A000070B586B0274B1B680093009AFC
:10059000264B1B68D21A41F288339A4201D80028B0
:1005A00040D0234C204600F0BFFC02A8214903F0B4
:1005B0001FFA204600F086FC014602A8FFF7C2FFA2
:1005C00002A803F0C9F9204600F0A0FC20B31A4CA1
:1005D00023685B68204619491C229847204603F08F
:1005E000FBF801F0C5FB01F031FF154C0D2500268D
:1005F00023680A2B09DD284601F040FAC0F1010109
:100600002846C9B201F016FA266023680133236038
:10061000FA2001F0A3FAEBE7034B1B680193019A60
:10062000024B1A6006B070BDB093FF1FC492FF1F4B
:10063000D091FF1FA05A0000DC95FF1FA45A0000B4
:100640000492FF1F2DE9F84F0025AB461B4E1C4CB2
:10065000DFF874805FFA8BFA5F464FF0000945F8C7
:100660000690504601F0B8F884F80090504601F02A
:10067000B3F807EB890948F82900237807EB8303CF
:1006800058F82320AB591344AB51012001F066FA0E
:1006900094F8009009F101095FFA89F984F8009053
:1006A000B9F1070FE2D9AB59064AAB500BF1010B78
:1006B0000435BBF1040FCDD1BDE8F88FB492FF1F14
:1006C0001092FF1F7C91FF1FF890FF1F08B50420B8
:1006D000002101F0E1F90220002101F0DDF9032001
:1006E000002101F0D9F90520002101F0D5F90620FB
:1006F000002101F0D1F90920002101F0CDF90C20F1
:10070000022101F0C9F90A20022101F0C5F90B20EC
:10071000022101F0C1F90420002101F08BF902202F
:10072000002101F087F90320002101F083F9052061
:10073000002101F07FF90620002101F07BF909205A
:10074000002101F077F90C20012101F073F90A2052
:10075000012101F06FF90B20012101F06BF908BDB7
:1007600010B586B0494C20464FF4FA6100F04EFDBA
:10077000204647494FF4E13200F024FD2046012194
:1007800000F01CFD58B1606C03685B6841491122A0
:1007900098470A2001F0E2F9204600F011FD3B489D
:1007A0000021012200F0A4FD394C23685B6820463B
:1007B00039491D229847204603F00EF8374838493A
:1007C00021220C2300F036FB0120FFF7DBFEFFF7B0
:1007D0007DFFFFF737FF00F039FC324A10463249FF
:1007E00000F0A6FC314A1046314900F0A1FC314A24
:1007F0001046314900F09CFC304A1046304900F068
:1008000097FC304A1046304900F092FC2F4A1046BF
:100810002F4900F08DFC2F4A10462F4900F088FC2C
:100820002E4A10462E4900F083FC2E4A10462E49CF
:1008300000F07EFC23685B6820462C49182298470C
:10084000204602F0C9FF40F6C41001F0F9F928482B
:10085000284900F0D1FD02A8274903F0C9F802A8F1
:100860006421FFF76FFE02A803F076F8234B1B68A4
:100870000193019A224B1A600D20012101F00CF91D
:100880000022204B1A6006B010BD00BF5C93FF1F12
:10089000DC95FF1FC45A0000D85A0000D091FF1FFA
:1008A000B81E5540C090FF1FD50B00009892FF1F47
:1008B0000D0C00000493FF1F450C0000E090FF1F8B
:1008C0007D0C0000C892FF1FB50C00001C93FF1F99
:1008D00065040000A091FF1F9D040000B891FF1F58
:1008E000D50400003893FF1F0D050000F85A0000E2
:1008F0001492FF1FBC95FF1F145B0000B093FF1FF5
:100900000C92FF1F0492FF1F2DE9F04383B02B4B85
:100910001A78013202F007021A7000252C46994617
:10092000274E284F99F8008004EB8808AA5957F8F9
:100930002830D31AAB51E0B200F04EFF47F8280040
:1009400099F8003004EB830357F82300AB5918449F
:10095000A8511D4BEB58984203D801221B4BE2547F
:100960001EE01B4AAA58904203D3FE22174BE254C2
:1009700016E0184955F801E0704509D88022009228
:1009800019467246012302F0D9FF104B185507E0B3
:10099000FE2300937146802302F0D0FF0B4B1855C5
:1009A0000D4BE35C1BB1094BE25CD243E2540134D2
:1009B0000435042CB6D103B0BDE8F0831092FF1FBC
:1009C000B492FF1FF890FF1F585A00003493FF1F86
:1009D000685A00007C91FF1F545A000008B500229D
:1009E0002E4B1A70052001F049F8012802D02C4B3B
:1009F0001B781BB1294B1A7801321A70062001F0BE
:100A00003DF8012803D1254B1A7802321A700920CB
:100A100001F034F8012803D1204B1A7804321A70FF
:100A2000042001F02BF8012803D11C4B1A7808325E
:100A30001A70022001F022F8012802D0194B1B780D
:100A40001BB1164B1A7810321A70032001F016F8F9
:100A5000012803D1114B1A7820321A700A2001F0B4
:100A60000DF810B1104B1B781BB10C4B1A784032AB
:100A70001A700C2001F002F810B10C4B1B781BB15E
:100A8000064B1A78803A1A700023064A1370074AF8
:100A90001370034A1370044A137008BD7891FF1F46
:100AA0000892FF1F0992FF1FB092FF1FE092FF1FE5
:100AB00010B5224800F0EAFAFFF726FFFFF78EFF95
:100AC0001F4B1B680A2B0BDD0D2000F0D7FFC0F178
:100AD00001010D20C9B200F0ADFF0022184B1A60D1
:100AE000174B1A6801321A60164B1978164B187892
:100AF00008445A7810449A781044DB78184400F07F
:100B0000FF00C043114BFF221A700F4A14785C702B
:100B100054789C709478DC70D2781A7159710024E2
:100B20009C71D8710A480B4900F0C8FC2046FFF7B9
:100B300029FD212001F012F810BD00BF7C87FF1FA6
:100B40000492FF1F7891FF1F3493FF1FD890FF1F5F
:100B50001492FF1F8C91FF1F70B50646194C20465A
:100B6000012100F08DFC2046314600F061FC20465A
:100B7000154900F05FFC2046012100F05DFC134D9B
:100B80002846214600F09AFC204600F057FCFA2047
:100B900000F0E4FF2046012100F072FC20463146BF
:100BA00000F046FC20460A4900F044FC20460121A2
:100BB00000F042FC2846214600F080FC204600F070
:100BC0003DFC70BDE492FF1F6087FF1F1492FF1F62
:100BD0007887FF1F38B50546094C23685B682046B7
:100BE000084904229847204629460A22002302F099
:100BF00003FE204602F0F0FD0348FFF7ADFF38BDCD
:100C0000DC95FF1F185B00006C87FF1F38B5054699
:100C1000094C23685B68204608490622984720460D
:100C200029460A22002302F0E7FD204602F0D4FD07
:100C30000348FFF791FF38BDDC95FF1F205B0000E4
:100C40006887FF1F38B50546094C23685B68204656
:100C5000084906229847204629460A22002302F026
:100C6000CBFD204602F0B8FD0348FFF775FF38BD05
:100C7000DC95FF1F285B00006487FF1F38B5054621
:100C8000094C23685B68204608490722984720469C
:100C900029460A22002302F0AFFD204602F09CFD07
:100CA0000348FFF759FF38BDDC95FF1F305B00009C
:100CB0007487FF1F38B50546094C23685B682046DA
:100CC000084907229847204629460A22002302F0B5
:100CD00093FD204602F080FD0348FFF73DFF38BD3D
:100CE000DC95FF1F385B00007087FF1F10B584B0D4
:100CF0002A4800F06FFB2A4802212A4A082300F004
:100D000087FB29480221002200F09CFB142300935A
:100D10000024019425482649264A152300F074F83A
:100D2000254801210922254B00F038F924480121EA
:100D30000A22244B00F032F9234801210C22234BD4
:100D400000F02CF9224801210D22224B00F026F957
:100D5000214801210B22214B00F020F92048214697
:100D60000C22204B00F01AF91F48214609221F4B84
:100D700000F014F91E4821460A221E4B00F00EF91D
:100D80001D4821460B221D4B00F008F91C4B1B6827
:100D90000393039A1B4B1A6004B010BD1492FF1FFB
:100DA0008C91FF1FD890FF1FE492FF1FD091FF1F6F
:100DB000EC512840B81E5540C090FF1F405B00001A
:100DC0009892FF1F445B00000493FF1F4C5B0000E0
:100DD000E090FF1F545B0000C892FF1F5C5B0000A7
:100DE0001C93FF1F645B0000A091FF1F685B000065
:100DF000B891FF1F6C5B00003893FF1F705B000011
:100E0000B093FF1FC492FF1F30B4052580F82E5009
:100E10004160826080F82C309DF8083080F82D30D9
:100E20009DF80C3080F83230012380F8333030BC2C
:100E3000704700BF2DE9F04104460D461E46216073
:100E4000104603F065FC8046E060304603F060FC2D
:100E500006462061A7684046314603F0A9FB0146DB
:100E6000304603F061FD394603F0AAFC0646606196
:100E70003846314603F058FDA06128464FF06A51CC
:100E800003F09EFCE0613046294603F04DFD2062F0
:100E900094F833309BB194F82D00012100F0FCFD53
:100EA00094F8321094F82D0081F0010100F0C2FD99
:100EB0000A2000F063FC94F82C0000F08DFCBDE8E3
:100EC000F08100BF70B582B00446406A0E4903F05D
:100ED00077FC03F03BFE064660680B4903F070FCAC
:100EE00003F034FE0546A068074903F069FC03F0EF
:100EF0002DFE02466423009330462946002302F06B
:100F00001DFD02B070BD00BF00007A4410B503465D
:100F10004FF001044068596A03F004FE08B94FF02D
:100F2000000404F0010010BD70B5044600230386E0
:100F300090F82D0094F8321000F07CFD052000F0B0
:100F40000DFE94F82E308BB100250A2694F82C0063
:100F500000F042FC238E18442086304600F0FEFD4F
:100F60000135EDB294F82E30AB42EFD894F8321040
:100F700094F82D0081F0010100F05CFD208E94F8C2
:100F80002E3090FBF3F003F0C7FBE16903F018FC8F
:100F90006062A16903F014FCA06270BD10B5044644
:100FA00000F0BAF8204610BD38B5054601E001F062
:100FB000A3FB01F091FB0028F9D1284604F082FB45
:100FC00002460B4C23685B682046294698472368F5
:100FD0001B682046FF21984723681B682046FF2195
:100FE000984723681B682046FF21984738BD00BFFB
:100FF000CC95FF1F30B583B0014602AC002344F806
:10100000043D114D284602F051FC28462146042299
:1010100002F04EFC9DF80430012B0ED19DF80530F6
:10102000FF2B0CD19DF80630FF2B0AD19DF807004D
:10103000FF2814BF0020012004E0002002E000206F
:1010400000E0002003B030BDCC95FF1F10B540F686
:10105000C41001F089F90A48FFF7A6FF0948FFF715
:10106000A3FF6420FFF7C6FF04460748FFF79CFF75
:101070006420FFF7BFFF002C08BF002010BD00BF99
:10108000AC5B0000745B00007C5B00002DE9F84362
:1010900007460A24184D2E4627E0204600F05EFD44
:1010A00001F02AFBC0B265281FD101F015FB05280D
:1010B0001BDDA946652309F8063BB04601F01CFB81
:1010C00008F8010FC845F9D10023EB712B79FF2BEC
:1010D0000BD16B79FF2B08D1AB79FF2B05D13846AB
:1010E0006978AA78EB7800F033F801F0F5FA002877
:1010F000D3DCBDE8F88300BF5093FF1F10B401702C
:10110000427043605DF8044B704700BF0078704741
:1011100040787047704700BF10B50446FFF7EEFFF8
:101120000023A36023616361E360204610BD00BF1C
:1011300001614261704700BF08B583680BB1C068A8
:10114000984708BD08B503690BB14069984708BDC9
:101150002DE9F0470F4691469A46064628B30468A3
:101160001CB300252046FFF7D1FFB84217D1204617
:10117000FFF7CEFF484512D12046FFF7CBFFBAF16B
:10118000010F04D12046FFF7D7FFBDE8F087BAF181
:10119000000F0AD12046FFF7D5FFBDE8F0870135E3
:1011A000ADB256F82540002CDCD1BDE8F08700BF79
:1011B00000228260C2600261426170470120704774
:1011C000704700BFF8B541641B240C4D0C4E0D4F09
:1011D00002E0C82000F0C2FC2B7813F0FF0F09D00A
:1011E000337813F0030F05D03A68074B1B68D31A06
:1011F000182B01D8013CECD1F8BD00BFA895FF1F0A
:10120000B895FF1FB093FF1FC096FF1F08B50023BE
:1012100083644360084609B100F0A0FC08BD00BF2C
:1012200008B5406C0368DB689847C0B208BD00BFD2
:1012300008B5406C03689B689847C0B208BD00BF02
:1012400038B504460D46406C03685B6809490622C0
:101250009847606C29460A22002302F0CDFA606CA0
:1012600003685B68044908229847322000F076FC46
:1012700038BD00BF9C5B0000A45B000038B504468D
:101280000D46037E73B3FFF7D3FF68B323E0204618
:10129000FFF7C6FF58381E281DD8DFE800F0181CDD
:1012A0001C1C1C1C1C1C1C1C1C121C1C1C1C101C94
:1012B0001C1C1C1C1C1C1C101C1C1C1C2700632040
:1012C00038BD20462946FFF7BBFF632038BD002309
:1012D0002376632038BD2046FFF7AAFF0028D6D129
:1012E000652038BD632038BD652038BD762038BD07
:1012F00070B50446164641B1012303760025204609
:101300002946FFF7BBFF6328F9D1267670BD00BFE1
:1013100008B50248FFF74CFF08BD00BF5C93FF1FF4
:10132000007C0D30C0B270470B4609B9C07D7047D4
:10133000012901D1807D7047022901D1407D70478C
:10134000032901D1007D7047042901D1C07E704777
:10135000052901D1807E7047062901D1407E704762
:10136000072901D1007E7047082902D1808B000A2D
:101370007047092901D1007F70470A2905D1837F71
:10138000002B0CBF0020022070470B2902D183687C
:10139000187870470C2902D1836858787047C26862
:1013A000134413F80D0C7047007B0330C0B2704734
:1013B0000B4611B9C089000A7047012901D1807B11
:1013C000704702290FBF007C82689B1813F8030C3A
:1013D000704700BF002242730273C27302744272EC
:1013E0008272C27100F111020260024AC0F88020CC
:1013F000704700BFBC95FF1FC0F88010704700BF4A
:1014000008B5D0F8800003681B68984708BD00BF86
:1014100030B401250571457182600373034B03608D
:10142000C1810023037430BC704700BF005C000022
:1014300081607047C1607047017470470023C360CA
:101440000374704730B403460D4608210171012131
:10145000417182600024C46004740246064942F867
:10146000141B064803C882E803009D839C7717225B
:101470001A71184630BC7047105C0000A487FF1F2B
:101480008177704738B505460C4692B1A1F17D03CE
:10149000DBB2012B03D901F0FD03112B09D1284642
:1014A0007D21FFF7ADFF284684F02001FFF7A8FF5C
:1014B00038BD28462146FFF7A3FF38BD2DE9F84384
:1014C00080460C467E210022FFF7DCFF23685B6824
:1014D00020469847064623685B682046984705469D
:1014E000B11C4046C1F307210122FFF7CBFFA91C25
:1014F0004046C9B20122FFF7C5FF404621790122CB
:10150000FFF7C0FF404661790122FFF7BBFF277953
:1015100063791F44FFB200254FF0010912E0EEB2DB
:1015200023681B68204631469847014640464A4694
:10153000FFF7A8FF23681B682046314698473844C8
:10154000C7B2013523685B68204698478542E6DBD1
:10155000F9434046C9B20122FFF794FFBDE8F88382
:1015600030B4394A3949136813F0800FFBD10B6846
:1015700013F0800FF7D172B6354B1B78002B5FD07C
:10158000344B1C6804331D6804331868043319682D
:1015900004331A6804331B682C44204401440A4471
:1015A0001A44C2F34E0242F400422B4B1A602C3311
:1015B0001C6804331D680433186804331968043345
:1015C0001A6804331B682C44204401440A441A441A
:1015D000C2F34E0242F40042204B1A6003F108139A
:1015E0001C6804331D680433186804331968043315
:1015F0001A6804331B682C44204401440A441A44EA
:10160000C2F34E0242F40042154B1A602C331C68A0
:1016100004331D68043318680433196804331A68E6
:1016200004331B682C44204401440A441A44C2F386
:101630004E0242F400420B4B1A600022044B1A7017
:1016400062B630BC704700BF24B0034024B00B40EA
:10165000A993FF1F38B003402CB0034030B00340C3
:101660002CB00B4030B00B4060223A4B1A70E12294
:1016700001331A70384B1B78082B10D1012203F16B
:10168000804303F56C331A60132334490B6001F572
:10169000FF2101F2FC710A60314A13601FE00A2B3E
:1016A0000DD139222F4B1A6013232C490B6001F501
:1016B000FF2101F2FC710A60294A13600FE00C2B34
:1016C0000CBF35223D22274B1A60122323490B60A1
:1016D00001F5FF2101F2FC710A60214A1360224BDF
:1016E0001B7833B10123214A136002F500221360F5
:1016F00005E000231D4A136002F5002213601C4B15
:101700001B78012B06D880231A4A136002F50022A9
:1017100013601AE0042B06D88423164A136002F5DE
:101720000022136011E0082B06D88523114A1360AC
:1017300002F50022136008E0102B94BF8623872354
:101740000C4A136002F50022136001220A4B1A7042
:10175000704700BF00400740AC87FF1F0CB003403C
:101760000CB00B4008B00340AC93FF1F20B0034007
:10177000AD87FF1F24B00340A993FF1F08B50C28B5
:1017800004D9102828BF1020102307E00A2804D805
:10179000092834BF08230A2300E00C23DAB2101A08
:1017A000094908700949097899420CD0074B1A7009
:1017B000074B1B782BB10023064A136002F5002269
:1017C0001360FFF751FF08BDA893FF1FAC87FF1FF1
:1017D000A993FF1F24B003402DE9F843282873D8AC
:1017E0003C4B1E5CFF2E72D03B4B1B780BB1FFF7BE
:1017F000B7FE16F0800F29D172B6384C384D4FF035
:10180000010726602F7062B672B6236813F0800F4E
:1018100004D12B7813F0FF0F0FD1F2E7314B18688A
:1018200000222F4B1A7062B62F4B1B781841BDE86F
:10183000F8832B7813F0FF0FE3D062B602F05EF965
:1018400072B6236813F0800FF3D0E7E772B606F0A4
:1018500040095FFA89F9254F254C06F03F06254DD2
:101860004FF00108B9F1000F04D03B6823F01003DA
:101870003B6003E03B6843F010033B60266085F863
:10188000008062B672B6236813F0800F04D12B7803
:1018900013F0FF0F0FD1E5E7174B18680022154B27
:1018A0001A7062B6104B1B781841BDE8F8832B788C
:1018B00013F0FF0FD6D062B602F020F972B623689B
:1018C00013F0800FF3D0E7E70020BDE8F883002095
:1018D000BDE8F883185C0000A993FF1F00B0034027
:1018E000AB93FF1F10B00340A893FF1F0CB00B4039
:1018F00000B00B40AA93FF1F10B00B40024B1A68B8
:1019000001321A60704700BFB093FF1F08B50D4C3D
:10191000236813F4802F01D001F0ACF8236813F48E
:10192000806F01D000F090FC236813F4006F01D0A9
:1019300002F0C2FC236813F4805FE9D000F042FF9C
:10194000E6E700BF3480044008B5FFF7DFFF00BFC3
:101950001022014B1A80704700200540704700BFDD
:10196000024A13681844106018467047B087FF1F7A
:10197000EFF31383ABB9EFF31083ABB9EFF3058348
:1019800023B10F2B05D9094A985C03E04FF480700E
:1019900000E00020EFF311833BB1834238BF1846CB
:1019A00070474FF0FF30704700207047F0E300E0D1
:1019B00030B40023B0FBF2F402FB14041D46092CE2
:1019C00094BF30343734E4B2CC54B0FBF2F008B1F9
:1019D0000133EFE70D4400226A70934207DD885C13
:1019E000CC5C8C54C8540132013B9A42F7DB084668
:1019F00030BC704710B50C46002802DBFFF7D8FF5B
:101A000010BD2D2301F8013B4042FFF7D1FF2046D6
:101A100010BD00BF044B00221A6004490A60044A4A
:101A2000106010221A60704714D0034004D00340A5
:101A300000D0034021281ED80F4B53F8303093F8C4
:101A4000802212F0FF0F08D019B1012283F8802004
:101A50007047012283F800217047074B03EBC00059
:101A6000436821B11A6842F003021A6070471A688D
:101A700022F002021A607047445C0000212806D858
:101A8000044B53F8303093F80002C0B27047002086
:101A9000704700BF445C000021283AD81D4B03EB7F
:101AA000C0035B68012919D0042925D0194A52F8CE
:101AB0003020002082F8800219B94FF480721A6039
:101AC0007047022903D140F203121A6070470329BC
:101AD0000CBF4FF4817200221A6070470D4A52F811
:101AE0003020012182F880124FF4A2721A601A6825
:101AF00022F020021A607047064A52F83020012175
:101B000082F880124FF4A2721A601A6842F0200222
:101B10001A607047445C000072B60C4B1B680C4A9C
:101B200012680C49096862B611F0806F02D0322B3E
:101B300088BF0132C3F53B437F330749A1FB030351
:101B40005B094FF47A7000FB0230704718E000E048
:101B5000B093FF1F04ED00E0ABAAAAAA38B5054672
:101B6000FFF7DAFF044625B938BD013D0AD004F578
:101B70007A74FFF7D1FF001BB0F57A7FF5D201F040
:101B8000BDFFF6E738BD00BF10B5264B4FF400028D
:101B90001A604FF080721A604FF000721A604FF0B6
:101BA00080621A604FF000621A6000201E4B1860BD
:101BB0004BF6FF710433196028231C4A1360083266
:101BC0001360083213600832136008321360083261
:101BD000136008321360083213600922144C22602B
:101BE00004F58054043420600434216004342360FC
:101BF00008342360143C226004F5FE240434206081
:101C00000C4801600C490B6008310B600B4B1A60EB
:101C1000FFF72AFD4FF4C870FFF7A0FF01F0AAFA02
:101C200010BD00BF08E100E0048003400C800340C9
:101C30000080034008800B400C800B4000800B406C
:101C4000254B1A6842F480621A600023234A1370FD
:101C5000234A1370234A1370234A1370234A1370C4
:101C6000234B1B7813B1152B05D008E040F213323B
:101C7000204B1A6003E040F213321F4B1A601F4BD7
:101C80001B78012B02D0052B05D008E04FF45172D0
:101C90001B4B1A6003E04FF451721A4B1A60C0F3E9
:101CA0004432194B1A70C0F347125A7000F01F00EB
:101CB000987204229A700221D9745A7588221A7473
:101CC0003C22DA704022114B1A704FF40052A3F2FA
:101CD00029331A60704700BF348004404094FF1FCE
:101CE000B993FF1F4894FF1F4194FF1FB893FF1F34
:101CF000FC93FF1F40A0044018C00440B487FF1F9E
:101D000044A004401CC0044000A006402DE400E0B4
:101D1000164B9B7803F0EC0300F00302134310F022
:101D2000040F18BF43F01003104A937000F00F0324
:101D3000042B04D11346927942F040029A710B4B66
:101D40005A7902F0EF0210F0100F18BF42F01002A3
:101D5000064B5A719B7903F0EF0310F0200F18BF68
:101D600043F01003014A9371704700BF00A0064082
:101D700010B5144B1B6813F4806F21D0124B1B78E5
:101D800013F0FF0F06D0104C01F0B8FE237813F0CB
:101D9000FF0FF9D14FF400520C4B1A6000230C4A8C
:101DA000D37040F203120B490A6004310A600A4AF8
:101DB00013700A4A13700A4B1B680BB101221A7088
:101DC00010BD00BF34800440B893FF1F84E100E0E1
:101DD00000A0064040A004404094FF1FB993FF1F9D
:101DE000B493FF1F10B50446094A137813F0FF0F90
:101DF000FBD120460121FFF74FFE20460021FFF7CF
:101E000019FE044B53F83420034B1A6010BD00BF79
:101E1000B893FF1F445C00004494FF1F10B40C46AD
:101E200009B140F08000184B1B78984228D0174A1F
:101E3000126812F4806F21D003F07F03012B02D0CF
:101E4000052B04D006E00022114B1A6002E00022AC
:101E5000104B1A60002C0CBF4422602200F07F035C
:101E6000012B02D0052B05D008E042F44072084B4C
:101E70001A6003E042F44072064B1A60024B18707D
:101E80005DF8044B704700BFB487FF1F34800440E7
:101E900044A004401CC00440114B1B7898421ED043
:101EA000104A126812F4806F17D013B1152B04D0AA
:101EB00006E000220C4B1A6002E000220B4B1A6075
:101EC00010B1152805D008E040F21332064B1A6015
:101ED00003E040F21332054B1A60014B1870704753
:101EE000FC93FF1F3480044040A0044018C004400D
:101EF00010B50D4B1B6813F4806F12D021280CD83D
:101F00000A4C0B4B53F8303023600121FFF7C4FD1E
:101F1000236800221A70012010BD0020034B1860B6
:101F200010BD002010BD00BF34800440B493FF1FDB
:101F3000445C0000114B1B6813F4806F1BD0122807
:101F400004D140F202320E4B1A600DE0142804D185
:101F500040F202320B4B1A6006E00B4B5A7B02F048
:101F6000FE025A7300207047074B5A7B42F0010271
:101F70005A73012070470020704700BF348004402E
:101F80000CA0044014C0044000A006402DE9F0411C
:101F900007461F4B1B6813F4806F37D01D4B1B681F
:101FA0000BB101221A701C4B1C780134402C28BF45
:101FB00000241A4D1A4EDFF86C8017E0FFF7D8FCAA
:101FC00040280FDC337913F0800F0FD02B780133CA
:101FD000402B28BF002318F80320D2B2F271DBB2E5
:101FE0002B7003E0FF2801DD01F088FD2B78DBB2C8
:101FF0009C42E3D0FFB20B4B1F5501220A4B1A70D3
:10200000E4B2054B1C70BC22054BDA70BDE8F081D0
:10201000348004404494FF1F4894FF1F4194FF1FE5
:1020200000A00640BC93FF1FB893FF1F2DE9F84F97
:102030000746284B1B6813F4806F49D0264B1B685A
:102040000BB101221A7007EB010B5F453DD2DFF89F
:102050009890224EDFF88C80DFF890A099F800402D
:102060000134402C28BF00243578EDB2A54220D1A0
:10207000BC2388F80330FFF77BFC402811DC98F87C
:10208000043013F0800F10D033780133402B28BF79
:1020900000231AF80320D2B288F80720DBB233708D
:1020A00003E0FF2801DD01F029FD3378DBB29D421A
:1020B000E1D017F8013B0AF804300122084B1A70EE
:1020C000E4B289F800405F45C8D1BC22054BDA7004
:1020D000BDE8F88F348004404494FF1F4194FF1FF3
:1020E000B893FF1F00A006404894FF1FBC93FF1F3A
:1020F00010B5064B1B7813F0FF0F06D0034C01F010
:10210000FDFC237813F0FF0FF9D110BDB893FF1F2A
:10211000064B1B78DBB2064A1278D2B293422CBF30
:102120003F3202F1FF32D01A704700BF4894FF1FC0
:102130004194FF1F054B1878C0B2054B1B78DBB2EA
:10214000984238BF4030C01A704700BF4094FF1F0C
:10215000B993FF1F10B4184B1A78D2B2174B1B78E3
:10216000DBB29A4218D001333F2B18D81449C85C0F
:10217000C0B2DCB211490C7012490968C9B19A4267
:1021800003D300E00023D31A01E04032D31A1A2B04
:102190000FDC00230B700CE04FF0FF3009E0084B20
:1021A0001878C0B20021054B1970064B1968002938
:1021B000E8D15DF8044B70474094FF1FB993FF1FAF
:1021C0000094FF1FB493FF1F094B1A78D2B2094B3A
:1021D0001B78DBB29A4207D00133402B28BF002383
:1021E000054AD05CC0B270474FF0FF30704700BF67
:1021F0004094FF1FB993FF1F0094FF1F0D4B1B68F6
:1022000013F4806F14D00C4BDA7802F0CB02DA7042
:1022100040225A74DA7842F03402DA70074B1A78A6
:10222000D2B2074B1A70074B1B680BB100221A7011
:10223000704700BF3480044000A00640B993FF1FE0
:102240004094FF1FB493FF1F70B43D4B1B7913F0F4
:10225000300F33D072B63A4B9B7D03F0FF022BB99F
:10226000374BDA7940225A7462B627E062B6354BB2
:102270001978C9B2344B1C78E4B2314D334EEB7946
:10228000D8B24B1C402B28BF0023A3421CBFF054E4
:102290001946531E13F0FF02F1D1CAB2294B1A702E
:1022A0002B4B1B6853B1A1422EBFC4EB0101C4F1FB
:1022B000400409192729C4BF01221A70204BDA787B
:1022C000D2B212F0800F27D01B7913F0800F23D0E9
:1022D000204B1C78E4B2204B1B78DBB29C4210D020
:1022E00017491E4D01E0A3420BD00133402B28BFFC
:1022F00000230879E85CC0B2C871087DC0B2072825
:10230000F1D9DBB214490B700D4B1B7913F0800F20
:1023100002D07C210A4BD97012F0400F0ED0084B2E
:102320001B7913F0400F09D000220D4B1A700D4B92
:102330001B6803B11A703C22014BDA7070BC704705
:1023400000A006404094FF1FB993FF1F0094FF1F99
:10235000B493FF1F4894FF1F4194FF1FBC93FF1FBE
:10236000B893FF1F4494FF1F174B1A6842F4805222
:102370001A600023154A1370154A1370154A13701A
:10238000154A1370154A137040F21331144A116044
:102390004FF4517104321160C0F34431114A11708D
:1023A000C0F34711517000F01F00907293701374C6
:1023B0002C23D37040220C4B1A704FF40032A3F23E
:1023C0002D331A60704700BF34800440BC94FF1F57
:1023D0005194FF1FC494FF1FBD94FF1F5094FF1F13
:1023E00008C0044000C0064031E400E0164B9B7872
:1023F00003F0EC0300F00302134310F0040F18BFC6
:1024000043F01003104A937000F00F03042B04D123
:102410001346927942F040029A710B4B5A7902F0BE
:10242000EF0210F0100F18BF42F01002064B5A7165
:102430009B7903F0EF0310F0200F18BF43F0100357
:10244000014A9371704700BF00C0064010B5144B9D
:102450001B6813F4805F21D0124B1B7813F0FF0F21
:1024600006D0104C01F04AFB237813F0FF0FF9D18E
:102470004FF400320C4B1A6000230C4AD37040F228
:1024800003120B490A6004310A600A4A13700A4AAF
:1024900013700A4B1B680BB101221A7010BD00BFEC
:1024A000348004405094FF1F84E100E000C00640E7
:1024B00008C00440BC94FF1F5194FF1F4C94FF1FA1
:1024C00010B50446094A137813F0FF0FFBD12046DC
:1024D0000121FFF7E1FA20460021FFF7ABFA044B98
:1024E00053F83420034B1A6010BD00BF5094FF1FF7
:1024F000445C0000C094FF1F10B40C4609B140F0CA
:102500008000104B1B78984219D00F4A126812F4C1
:10251000805F12D003F07F03082B02D100220B4B07
:102520001A60002C0CBF4422602200F07F03082BAD
:1025300003D142F44072054B1A60024B18705DF8EB
:10254000044B7047B587FF1F348004400CC0044023
:10255000704700BF10B50D4B1B6813F4805F12D09D
:1025600021280CD80A4C0B4B53F830302360012142
:10257000FFF792FA236800221A70012010BD002094
:10258000034B186010BD002010BD00BF3480044014
:102590004C94FF1F445C00000D4B1B6813F4805FDC
:1025A00013D00E280AD140F202320A4B1A600A4BAD
:1025B0005A7B42F001025A7301207047064B5A7B46
:1025C00002F0FE025A73002070470020704700BFDF
:1025D0003480044004C0044000C006402DE9F041AE
:1025E00007461F4B1B6813F4805F37D01D4B1B68D9
:1025F0000BB101221A701C4B1C780134282C28BF07
:1026000000241A4D1A4EDFF86C8017E0FFF7B0F97E
:1026100040280FDC337913F0800F0FD02B78013373
:10262000282B28BF002318F80320D2B2F271DBB2A6
:102630002B7003E0FF2801DD01F060FA2B78DBB29C
:102640009C42E3D0FFB20B4B1F5501220A4B1A707C
:10265000E4B2054B1C70AC22054BDA70BDE8F0818A
:1026600034800440C094FF1FC494FF1FBD94FF1F1B
:1026700000C006405494FF1F5094FF1F38B5054614
:102680000C4629B115F8010BFFF7A8FF013CF9D161
:1026900038BD00BF10B5064B1B7813F0FF0F06D0F6
:1026A000034C01F02BFA237813F0FF0FF9D110BD82
:1026B0005094FF1F064B1B78DBB2064A1278D2B249
:1026C00093422CBF273202F1FF32D01A704700BF6D
:1026D000C494FF1FBD94FF1F054B1878C0B2054B73
:1026E0001B78DBB2984238BF4030C01A704700BF39
:1026F000BC94FF1F5194FF1F10B4184B1A78D2B22C
:10270000174B1B78DBB29A4218D001333F2B18D8F5
:102710001449C85CC0B2DCB211490C701249096896
:10272000C9B19A4203D300E00023D31A01E040323A
:10273000D31A1A2B0FDC00230B700CE04FF0FF3084
:1027400009E0084B1878C0B20021054B1970064B00
:1027500019680029E8D15DF8044B7047BC94FF1F4D
:102760005194FF1F7C94FF1F4C94FF1F094B1A7854
:10277000D2B2094B1B78DBB29A4207D00133402B0F
:1027800028BF0023054AD05CC0B270474FF0FF302D
:10279000704700BFBC94FF1F5194FF1F7C94FF1F24
:1027A000054B1A78D2B2054B1A70054B1B680BB15A
:1027B00000221A70704700BF5194FF1FBC94FF1F86
:1027C0004C94FF1F2F4B1B7913F0200F23D02D4B60
:1027D000DB79D9B22C4B1B780133402B28BF002367
:1027E0002A4A1278D2B29A4204D0294AD154D9B294
:1027F000254A1170274A116869B1274A1278D2B266
:1028000093422EBFC2EB0303C2F140029B18272B59
:10281000C4BF01230B701B4BDB78DBB213F0800FBE
:102820001CD0184A127912F0800F17D01B4A117869
:10283000C9B2194A1278D2B2914203D16C21114A1D
:10284000D1700BE00132282A28BF00221449885C8D
:10285000C0B20C49C871D2B20F490A7013F0400FD0
:102860000ED0084B1B7913F0400F09D000220D4BFE
:102870001A700D4B1B6803B11A702C22014BDA70D1
:10288000704700BF00C00640BC94FF1F5194FF1F5B
:102890007C94FF1F4C94FF1FBD94FF1FC494FF1F27
:1028A0005494FF1F5094FF1FC094FF1F30B40E4B71
:1028B0001B7843F002020D4C04EBC20460600C482C
:1028C000007800280CBF8824C82444EA0141074D41
:1028D00045F8321080F00100054A107083F00103C2
:1028E000014A137030BC70473095FF1F0080FF1FF6
:1028F000A995FF1F10B4431E032B11D872B60A4AC4
:1029000052F8230050B14268074941F82320074A92
:1029100032F813400188611A22F8131062B600E001
:1029200000205DF8044B70472095FF1FB096FF1FF5
:10293000013803280DD872B6074B53F820302BB15D
:10294000002001305B68002BFBD100E0002062B664
:1029500070470020704700BF7495FF1F38B572B6EE
:1029600001231B491B4C5A1812F8012C12F0080FB6
:1029700024D09A0054F832506DB9164B03EBC201C3
:1029800008304860144943F83210144B1A78013A61
:102990001A7062B638BD42F0010254F832506DB977
:1029A0000C4B03EBC201083048600D4943F832106C
:1029B0000A4B1A78013A1A7062B638BD0133052BFA
:1029C000D1D162B60022054B1A7000F037FC38BD39
:1029D000485E00000080FF1F880040009E95FF1F9A
:1029E000C800400010B4431E032B37D8400140F00C
:1029F00010001C4A104472B61B4AD25C032A09D844
:102A0000DFE802F019021B050830022216E0083048
:102A1000042213E0154A52F823201AB9134A42F847
:102A2000231003E0124A52F823205160104A42F862
:102A3000231062B612E0032200E005220A4CE254A1
:102A400001F10803436000F00803002B0CBF88234A
:102A5000C8230A8843EA0243036062B65DF8044B68
:102A6000704700BF0080FF1FDC94FF1F7495FF1F9D
:102A70008495FF1F2DE9F84FA34CDFF8E092DFF8B3
:102A8000E0A2DFF8E0B22578EDB215F0040F1DD01A
:102A90009E4B1B7813F0FF0F16D09D4B1B7803F055
:102AA000FF022BB1531EDBB2994A137003B900BE6B
:102AB000984B1B7803F0FF0233B1531EDBB2954AEB
:102AC00013700BB900F018FD0423237015F0080FE4
:102AD00000F0E48299F80030DBB21D0940F0218259
:102AE0008D4D9E0805EBC6035A6855F83630C3F382
:102AF0008303013B0C2B00F21082DFE813F0CB01C3
:102B0000CB010E020E020E020E020E020E02E801B0
:102B10000E020E020E020D00804913680B6052680F
:102B20004A607F4A45F8362000227E490A607A4989
:102B30000A618A6101217C4A11709BB240F2816274
:102B4000934218D8B3F5D06F2ED2B3F5817F00F041
:102B50001E8106D8802B00F0C980822B00F0CC802B
:102B600066E140F20232934200F02681B3F5A06F95
:102B700000F062815CE142F22102934200F0868122
:102B800007D8B3F5086F00F0AB80B3F5106F11D024
:102B90004EE142F22122934200F0418142F2213281
:102BA000934200F0498143E1604B5D68002D40F0A5
:102BB000188130E1594B9A78544B1A70564D05F1F3
:102BC00080062B6A13F0800F03D0686A083800F083
:102BD00035FB0835B542F4D1DFF88C810026374645
:102BE000534AB05828B1456800F028FB0DB128467B
:102BF000F9E700234E4973504E4AB3504E4BF058FC
:102C000028B1456800F01AFB0DB12846F9E700230A
:102C100049497350494AB35028F8023F484BFB5C7E
:102C2000023B032B0AD8DFE803F00206020600226B
:102C3000434BDA5502E00122414BDA5501370436A5
:102C4000102ECDD100223F4B1A7001253E4EDFF8E9
:102C50001C81314F05EB080313F8013C06F8043BD7
:102C600013F0080F2DD000F0C9FA48B1A90007EB06
:102C7000451200F108035360344A47F8312007E059
:102C8000AB00002247F833202E4B1A7801321A701D
:102C900000F0B4FA58B1AB0043F0010307EBC301F5
:102CA00000F108024A601E4A47F8332009E0AB00F1
:102CB00043F00103002247F83320224B1A780132F7
:102CC0001A70AA0042F00201002347F8313042F0A6
:102CD000030247F8323001351D4B9E42BAD11EE245
:102CE0000A4B1B781B4D2B700127AAE0194D0023BE
:102CF0002B706B700227A4E0084B9B88042B37D9FC
:102D00000F22154B1A70C1E080200740A895FF1FC5
:102D10003195FF1FAA95FF1F0080FF1F9495FF1F8D
:102D2000C8004000C894FF1FA995FF1F4C5E00001B
:102D30002095FF1FCC94FF1F7495FF1F8495FF1FE4
:102D4000DC94FF1F9E95FF1FC420074088004000B1
:102D5000D4200740A095FF1FC020074090200740C7
:102D60009420074098200740AE96FF1F485E000061
:102D7000A04A0021117051709F4A12F8233013F0BD
:102D8000020F5CD09B4D01232B70022759E09B4B17
:102D90009B8803F07F03042B02DC984A52881AB107
:102DA0000F22954B1A7071E0934A12F8231021F00C
:102DB000020102F82310B2E1904B9B8803F07F03DD
:102DC000042B02DC8D4A52881AB10F228A4B1A70EA
:102DD0005CE0894A12F8231041F0020102F8231046
:102DE0009DE1864B5E889F88854BA3F10C021146BE
:102DF00033F80C0CB04209D133F80A0CB84205D1B3
:102E0000360A032E0CBF2F7817891AE00D690C3390
:102E10000C32002DEBD10F22774B1A7036E0794B34
:102E20001A68794B1A60754B9A78784B1A7076E16C
:102E30000F22714B1A7029E000273D4601E002275E
:102E40006C4D6E4BDB889F4228BF1F46402F34BF1E
:102E50003E46402628463146FFF728FD3544BF1B35
:102E600003D13F2E00F2608110E0402F34BF3E4678
:102E7000402628463146FFF719FD3544BF1B01D1D6
:102E80003F2E03D9624B1D60624B1F8001238AF8DD
:102E9000003042E0594B198842F22103994212D185
:102EA0005D4BD81D12F8011B03F8011F8342F9D1B5
:102EB0005A4B1B68862B02D10F22594B1A700020E7
:102EC0000146FFF7F3FC574B45F8363025E0504BF1
:102ED0001E68BEB14F4FB7F80080B8F1400F34BF45
:102EE0004546402530462946FFF7E0FCC5EB080380
:102EF0009BB23B800BB9402D01D1354400E0002549
:102F0000434B1D603D4B1B88B3F5A06F05D13B4B78
:102F100000225A709B788BF8003001238AF8003029
:102F2000B9E0414E9F0806EBC708D8F80420A2F18B
:102F30000800013DEDB213F0080F47D000F07EF914
:102F40003A4B53F825304BB35A68384941F825209D
:102F500003F10802C8F80420354A525D032A12D84A
:102F6000DFE802F002060A0E0321314A51550AE059
:102F700002212F4A515506E005212D4A515502E004
:102F800004212B4A515518F0080F0CBF8822C82283
:102F90001B8842EA034346F837307CE0244B5B5DF4
:102FA000032B0BD8DFE803F0777702060022204BD3
:102FB0005A5570E001221E4B5A556CE018F0080F6C
:102FC0000CBF022203221A4B5A5564E056F83730E0
:102FD0001B0C22F8083C002B55D0002322F8063C9D
:102FE00042F8043C134B53F825302BBB114B43F8EC
:102FF000250025E0A095FF1FC02007409495FF1FE6
:10300000585E0000B093FF1FC096FF1FB895FF1FCA
:10301000C894FF1F9C95FF1FB796FF1FB896FF1F10
:103020003195FF1FC80040000080FF1F7495FF1FEF
:10303000DC94FF1F2095FF1F3F4B53F8253058604D
:103040003D4B43F825003D4B33F8151032F8082C62
:103050000A4423F8152000F0D1F860B100F108030C
:10306000C8F8043018F0080F354B364A08BF13462D
:1030700046F837300FE0002346F83730324B1A78E5
:1030800001321A7007E018F0080F2D4B2D4A08BFC7
:10309000134646F8373008232370F4E415F0010F87
:1030A00022D02A4902230B700022294B1A70294B87
:1030B00024481860284C5C6098602848D8601A61E1
:1030C0009A610D20264B1870FF232648037008389C
:1030D000037018300270244A13709F22234B1A7019
:1030E00001230B70BDE8F88F15F0800F05D00D227D
:1030F0001B4B1A708022403B1A7015F0020F06D04D
:10310000184B1A78D2B21A700222083B1A7015F0C6
:10311000100F0ED01022164B1A70BDE8F88F002049
:103120000146FFF7C3FBB1E628460021FFF7BEFBCF
:10313000ACE6BDE8F88F00BFCC94FF1FB096FF1F30
:10314000C8004000880040009E95FF1F9420074063
:103150003095FF1F0080FF1FE094FF1F3495FF1F75
:10316000C0200740882007408C200740842007406B
:103170008020074008B501F02FF900231B491A46AB
:103180005A50C81842600833882BF9D1184B1A6876
:1031900042F480221A60154BC3F30721154A1170BF
:1031A000C3F30741143211701B0E04321370FF2356
:1031B000343A137008321370783A13700123843252
:1031C000137000216C3211707C3A137070220A4B1C
:1031D0001A704FF40072A3F241331A60102203F107
:1031E000C04303F5C8231A7008BD00BF0080FF1F4D
:1031F000348004409C20074049E400E072B60D4B47
:103200001A68B2FA82F30B2B02D962B6002070471B
:103210004FF00041D94022EA010206490A6062B635
:10322000054903EBC303DB00C8180022CA50426003
:10323000704700BFB887FF1F0084FF1F08B50F4B02
:10324000C31A0F4AA2FB03131B090B2B14D80D4AF8
:1032500012783AB10C4A127812F0FF0F02D0FFF741
:103260007DFB08BD72B6094A4FF0004121FA03F315
:1032700011681943116062B608BD00BF0084FF1FCA
:10328000398EE3389E95FF1FA895FF1FB887FF1F53
:1032900010B5134B1B6853B9124B1B7813F0FF0F7B
:1032A00018D00320FFF726FB0D4B1860A8B10C4B7C
:1032B000186843885A1C03441C7A03889A4206D330
:1032C000FFF7BCFF0022064B1A60204610BD42806B
:1032D000204610BD4FF0FF3010BD4FF0FF3010BD45
:1032E000B495FF1FA895FF1F08B50D4B1B6883B948
:1032F0000C4B1B7813F0FF0F08D00320FFF7FAFAEE
:10330000074B186028B94FF0FF3008BD4FF0FF3071
:1033100008BD034B1B685A881344187A08BD00BFC8
:10332000B495FF1FA895FF1F044B9888044B1B689A
:103330001BB11A885B88D31A18447047B096FF1FD8
:10334000B495FF1F10B50B4B1B7813F0FF0F0FD078
:10335000094B186820B1FFF771FF0022064B1A6075
:1033600003242046FFF7C6FA10B1FFF767FFF8E71E
:1033700010BD00BFA895FF1FB495FF1F2DE9F84FA2
:1033800004460122384B1A708B46002965D00E4640
:10339000DFF8E080DFF8E0909A46344FD8F800304C
:1033A00083BB99F8003013F0FF0F06D100222E4B9B
:1033B0001A704FF0FF30BDE8F88F47F2095504202E
:1033C000FFF7B6FA07280AD801238AF80030FFF77A
:1033D00015FFC8F80000A8B900238AF80030013DA5
:1033E00001D03B7833B10122204B1A704FF0FF30EF
:1033F000BDE8F88F00F082FB99F8003013F0FF0F62
:10340000DDD1D3E700233B70D8F800104A88C2F121
:103410004005AE4238BF354602F108030B442A444A
:103420004A80761B3DB1254414F8012B03F8012B8B
:10343000AC42F9D100E025464B883F2B07D9402309
:103440000B800420FFF7CEFA0023C8F800300522D5
:10345000074B1A700EB12C46A0E70022024B1A70DF
:103460005846BDE8F88F00BFAB95FF1FB095FF1F12
:10347000AA95FF1FAC95FF1FA895FF1F00B583B04D
:1034800002AB03F8010D18460121FFF777FF03B0E7
:103490005DF804FB10B5144B1B7813F0FF0F21D01F
:1034A0000122124B1A70124B196851B10024114BB2
:1034B0001C704B880B800420FFF794FA0C4B1C60A7
:1034C0000DE0FFF79BFE014630B10022094B1A7058
:1034D0000420FFF787FA02E00122064B1A7000224F
:1034E000024B1A7010BD00BFA895FF1FAB95FF1FC0
:1034F000AC95FF1FAA95FF1F08B50E4B1B7813F064
:10350000FF0F16D10C4B196841B14B880B8004207A
:10351000FFF768FA0022084B1A6008BDFFF76EFE3D
:10352000014618B10420FFF75DFA08BD0122034BE4
:103530001A7008BDAB95FF1FAC95FF1FAA95FF1F22
:1035400008B503681B68C9B2984708BD08B5036889
:103550001B68C9B2984708BD08B503681B68C9B2A3
:10356000984708BD08B503681B68C9B2984708BDED
:1035700008B54B0803F1B76000F55840B0FBF1F017
:10358000FEF75EFB08BD00BF10B514464B0803F103
:10359000B76000F55840B0FBF1F0FEF751FB204654
:1035A000FEF7B6FB10BD00BF08B5FEF7E1FB08BD96
:1035B00008B50846FEF716FC08BD00BF08B508466A
:1035C000FEF76AFC08BD00BF08B508461146FEF7C5
:1035D00025FC08BD08B50846FEF78AFC003018BF78
:1035E000012008BD08B50846FEF7A4FC003018BF4E
:1035F000012008BD08B5FEF79DFD08BD08B5FEF722
:10360000E3FD08BD08B5FEF7A5FD08BD08B5FEF74A
:103610006FFD08BD08B5FEF7F1FD08BD08B5FEF762
:1036200077FD08BD08B50846FEF7B0FC012008BDCF
:1036300008B50846FEF7AAFC012008BD10B51446DF
:1036400008461146FEF7F2FC204610BD38B50D467F
:10365000084602F037F8044628462146FEF7E6FC05
:10366000204638BD704700BF044B00221A714FF44A
:103670007A7199601A73024A1A607047BC95FF1FED
:10368000605D000008B503681B68C9B2984708BDB3
:1036900008B503681B68C9B2984708BD08B5036838
:1036A0001B68C9B2984708BD08B503681B68C9B252
:1036B000984708BD08B54B0803F1B76000F55840BE
:1036C000B0FBF1F0FEF750FE08BD00BF10B5144688
:1036D0004B0803F1B76000F55840B0FBF1F0FEF77E
:1036E00043FE2046FEF782FE10BD00BF08B5FEF780
:1036F000ADFE08BD08B50846FEF7E2FE08BD00BFF6
:1037000008B50846FEF724FF08BD00BF08B5084607
:103710001146FEF7F1FE08BD08B50846FEF71AFF90
:10372000003018BF012008BD08B50846FEF734FF79
:10373000003018BF012008BD08B5FEF7CDFF08BD59
:1037400008B5FFF713F808BD08B5FEF7D5FF08BDAB
:1037500008B5FEF79FFF08BD08B5FFF721F808BDC3
:1037600008B5FEF7A7FF08BD08B50846FEF736FF07
:10377000012008BD08B50846FEF730FF012008BD4E
:1037800010B5144608461146FEF778FF204610BDD6
:1037900038B50D46084601F095FF044628462146F7
:1037A000FEF76CFF204638BD704700BF044B002277
:1037B0001A714FF47A7199601A73024A1A6070474D
:1037C000CC95FF1FC05D000008B5FCF7C9FFFDF7F1
:1037D0006FF900F093F9FAE700B583B0054B1B8849
:1037E000ADF8043003685B6801A90222984703B072
:1037F0005DF804FB185E0000F0B58BB0164622B9E8
:1038000003681B68C9B298472FE0012A08BF0A263F
:1038100021B930228DF82520212417E021243746B4
:10382000B1FBF6F506FB1515EDB22246092D94BF46
:1038300030353735EDB20DF1280E724402F8245CB4
:10384000B1FBF7F111B1013CE4B2E9E733B1013C5E
:10385000E4B20AAB23442D2203F8242C03685B68EE
:1038600001A92144C4F1220298470BB0F0BD00BF6A
:1038700070B582B004460C4B1B680093009E0A4D45
:103880002368DB682046984700280ADA00F036F9FA
:103890002B680193019A921BA3689A42F0D34FF0D0
:1038A000FF3002B070BD00BFB093FF1F8160704752
:1038B000F8B505460E4617466AB100242846FFF7BC
:1038C000D7FF002802DA01232B7305E030550134BD
:1038D000BC42F3D100E000242046F8BD08B5FFF754
:1038E00023FD08BD08B5FFF7D3FC08BD08B5FFF7F9
:1038F000FBFC08BD08B5FFF7CDFD08BD08B5FFF717
:1039000021FD08BD08B50846FFF7B8FD08BD00BF9A
:1039100008B508461146FFF731FD08BD704700BFE6
:10392000044B00221A714FF47A7199601A73024A9B
:103930001A607047DC95FF1F285E000010B4401A23
:10394000019CE41A04FB00F4521A94FBF2F01844B0
:103950005DF8044B704700BF10B50446006801F0E5
:103960004BF9204610BD00BF38B504460D4600682F
:10397000013101F049FC18B120606560012038BDBB
:10398000002038BD10B5044643688B420AD2FFF7C9
:10399000EBFF034648B1A36833B9236800221A70CD
:1039A000012302E0012300E00123184610BD00BFFF
:1039B00070B504460E4615462AB9036803B11A705D
:1039C0000023A36012E01146FFF7DCFF48B920682E
:1039D00018B101F011F90023236000236360A36094
:1039E00004E0A5602068314601F00EFE204670BD5F
:1039F00038B50446002303604360836003730D46BB
:103A000039B1084601F05EFE024620462946FFF71E
:103A1000CFFF204638BD00BF08B50B46884203D013
:103A200009689A68FFF7C4FF08BD00BF10B50446D7
:103A300000230360436083600373FFF7EDFF2046BC
:103A400010BD00BF2DE9F84304460D4616468268B6
:103A500003688B4206D899188D4205D2C3EB05093D
:103A6000012702E0002700E00027DEB106EB020894
:103A700020464146FFF786FFA0B15FB12168A068EC
:103A800008444944324600F05BF82368002203F8FA
:103A9000082005E02068A3681844294601F0B4FD19
:103AA000C4F808802046BDE8F88300BF10B584B094
:103AB0000446084601A90A22FDF79CFF01A801F06F
:103AC00001FE0246204601A9FFF7BCFF204604B0D4
:103AD00010BD00BF38B504460D4639B1084601F0A7
:103AE000F1FD024620462946FFF7ACFF204638BDCF
:103AF00010B50446FFF7DAFF204610BD08B50F4B9E
:103B00001B78CBB901220D4B1A70FFF70DFC08B1E1
:103B1000FFF704FFFEF70EFB08B1FFF7A3FD00F06F
:103B200041FB08B100F02EFDFEF7D6FD08B1FFF70E
:103B30003BFE0022014B1A7008BD00BFEC95FF1F31
:103B4000844641EA000313F003036DD1403A41D3A8
:103B500051F8043B40F8043B51F8043B40F8043B67
:103B600051F8043B40F8043B51F8043B40F8043B57
:103B700051F8043B40F8043B51F8043B40F8043B47
:103B800051F8043B40F8043B51F8043B40F8043B37
:103B900051F8043B40F8043B51F8043B40F8043B27
:103BA00051F8043B40F8043B51F8043B40F8043B17
:103BB00051F8043B40F8043B51F8043B40F8043B07
:103BC00051F8043B40F8043B51F8043B40F8043BF7
:103BD000403ABDD2303211D351F8043B40F8043B97
:103BE00051F8043B40F8043B51F8043B40F8043BD7
:103BF00051F8043B40F8043B103AEDD20C3205D3A7
:103C000051F8043B40F8043B043AF9D2043208D09E
:103C1000D2071CBF11F8013B00F8013B01D30B8810
:103C200003806046704700BF082A13D38B078DD0EE
:103C300010F003038AD0C3F10403D21ADB071CBFC0
:103C400011F8013B00F8013B80D331F8023B20F82A
:103C5000023B7BE7043AD9D3013A11F8013B00F863
:103C6000013BF9D20B7803704B7843708B788370EB
:103C700060467047254B1A6842F400621A600023C0
:103C8000234A1370234A1370234A1370234A137074
:103C9000234A1370234B1B78092B02D01A2B05D013
:103CA00008E040F21332204B1A6003E040F2133276
:103CB0001E4B1A601E4B1B780A2B02D01F2B05D0FF
:103CC00008E04FF451721B4B1A6003E04FF451723D
:103CD000194B1A60C0F34432184B1A70C0F34712E4
:103CE0005A7000F01F00987204229A700221D97451
:103CF0005A7588221A743C22DA704022104B1A70CE
:103D00004FF40042A3F22B331A6070473480044012
:103D10006096FF1FF595FF1F6896FF1F6196FF1FB6
:103D2000F495FF1FBC87FF1F0CB0044004D0044073
:103D3000BD87FF1F10B0044000D0044000B0064013
:103D40002FE400E0164B9B7803F0EC0300F0030235
:103D5000134310F0040F18BF43F01003104A937080
:103D600000F00F03042B04D11346927942F0400275
:103D70009A710B4B5A7902F0EF0210F0100F18BF36
:103D800042F01002064B5A719B7903F0EF0310F0DA
:103D9000200F18BF43F01003014A9371704700BF12
:103DA00000B0064010B5224B1B6813F4006F3ED0E4
:103DB000204B1B7813F0FF0F06D01E4CFFF79EFE22
:103DC000237813F0FF0FF9D14FF400421A4B1A6019
:103DD00000221A4BDA701A4B1B78092B02D01A2BCF
:103DE00005D008E040F20312164B1A6003E040F2DF
:103DF0000312154B1A60154B1B7803F07F030A2B37
:103E000002D01F2B05D008E040F20312104B1A60BD
:103E100003E040F203120F4B1A6000230E4A1370A6
:103E20000E4A13700E4B1B680BB101221A7010BDA5
:103E300034800440F495FF1F84E100E000B00640A8
:103E4000BC87FF1F0CB0044004D00440BD87FF1F97
:103E500010B0044000D004406096FF1FF595FF1F8E
:103E6000F095FF1F10B50446094A137813F0FF0FB1
:103E7000FBD120460121FDF70FFE20460021FDF772
:103E8000D9FD044B53F83420034B1A6010BD00BF1A
:103E9000F495FF1F445C00006496FF1F10B40C46AD
:103EA00009B140F08000184B1B78984228D0174A7F
:103EB000126812F4006F21D003F07F030A2B02D0A6
:103EC0001F2B04D006E00022114B1A6002E00022F2
:103ED000104B1A60002C0CBF4422602200F07F03BC
:103EE0000A2B02D01F2B05D008E042F44072084B89
:103EF0001A6003E042F44072064B1A60024B1870DD
:103F00005DF8044B704700BFBD87FF1F348004403D
:103F100010B0044000D00440124B1B78984220D0CF
:103F2000114A126812F4006F19D0092B02D01A2B13
:103F300004D006E000220D4B1A6002E000220C4B78
:103F40001A60092802D01A2805D008E040F213327E
:103F5000064B1A6003E040F21332054B1A60014B26
:103F600018707047BC87FF1F348004400CB00440B9
:103F700004D0044010B50D4B1B6813F4006F12D031
:103F800021280CD80A4C0B4B53F830302360012108
:103F9000FDF782FD236800221A70012010BD002069
:103FA000034B186010BD002010BD00BF34800440DA
:103FB000F095FF1F445C00000D4B1B6813F4006F6D
:103FC00013D017280AD140F202320A4B1A600A4B6A
:103FD0005A7B42F001025A7301207047064B5A7B0C
:103FE00002F0FE025A73002070470020704700BFA5
:103FF0003480044008B0044000B006402DE9F04190
:1040000007461F4B1B6813F4006F37D01D4B1B680E
:104010000BB101221A701C4B1C780134282C28BFCC
:1040200000241A4D1A4EDFF86C8017E0FDF7A0FC53
:1040300040280FDC337913F0800F0FD02B78013339
:10404000282B28BF002318F80320D2B2F271DBB26C
:104050002B7003E0FF2801DDFFF750FD2B78DBB26A
:104060009C42E3D0FFB20B4B1F5501220A4B1A7042
:10407000E4B2054B1C70BC22054BDA70BDE8F08140
:10408000348004406496FF1F6896FF1F6196FF1FEF
:1040900000B00640F895FF1FF495FF1F2DE9F84F7B
:1040A0000746284B1B6813F4006F49D0264B1B684A
:1040B0000BB101221A7007EB010B5F453DD2DFF80F
:1040C0009890224EDFF88C80DFF890A099F800409D
:1040D0000134282C28BF00243578EDB2A54220D128
:1040E000BC2388F80330FDF743FC402811DC98F826
:1040F000043013F0800F10D033780133282B28BF01
:1041000000231AF80320D2B288F80720DBB23370FC
:1041100003E0FF2801DDFFF7F1FC3378DBB29D42BD
:10412000E1D017F8013B0AF804300122084B1A705D
:10413000E4B289F800405F45C8D1BC22054BDA7073
:10414000BDE8F88F348004406496FF1F6196FF1F1E
:10415000F495FF1F00B006406896FF1FF895FF1FFB
:1041600010B5064B1B7813F0FF0F06D0034CFFF77A
:10417000C5FC237813F0FF0FF9D110BDF495FF1F94
:10418000064B1B78DBB2064A1278D2B293422CBFA0
:10419000273202F1FF32D01A704700BF6896FF1F26
:1041A0006196FF1F054B1878C0B2054B1B78DBB238
:1041B000984238BF4030C01A704700BF6096FF1F5A
:1041C000F595FF1F10B4184B1A78D2B2174B1B7815
:1041D000DBB29A4218D001333F2B18D81449C85C7F
:1041E000C0B2DCB211490C7012490968C9B19A42D7
:1041F00003D300E00023D31A01E04032D31A1A2B74
:104200000FDC00230B700CE04FF0FF3009E0084B8F
:104210001878C0B20021054B1970064B19680029A7
:10422000E8D15DF8044B70476096FF1FF595FF1FBE
:104230002096FF1FF095FF1F094B1A78D2B2094B49
:104240001B78DBB29A4207D00133402B28BF0023F2
:10425000054AD05CC0B270474FF0FF30704700BFD6
:104260006096FF1FF595FF1F2096FF1F0D4B1B68E3
:1042700013F4006F14D00C4BDA7802F0CB02DA7032
:1042800040225A74DA7842F03402DA70074B1A7816
:10429000D2B2074B1A70074B1B680BB100221A7081
:1042A000704700BF3480044000B00640F595FF1F02
:1042B0006096FF1FF095FF1F70B43D4B1B7913F004
:1042C000300F33D072B63A4B9B7D03F0FF022BB90F
:1042D000374BDA7940225A7462B627E062B6354B22
:1042E0001978C9B2344B1C78E4B2314D334EEB79B6
:1042F000D8B24B1C402B28BF0023A3421CBFF05454
:104300001946531E13F0FF02F1D1CAB2294B1A709D
:104310002B4B1B6853B1A1422EBFC4EB0101C4F16A
:10432000400409192729C4BF01221A70204BDA78EA
:10433000D2B212F0800F27D01B7913F0800F23D058
:10434000204B1C78E4B2204B1B78DBB29C4210D08F
:1043500017491E4D01E0A3420BD00133282B28BF83
:1043600000230879E85CC0B2C871087DC0B2072894
:10437000F1D9DBB214490B700D4B1B7913F0800F90
:1043800002D07C210A4BD97012F0400F0ED0084B9E
:104390001B7913F0400F09D000220D4B1A700D4B02
:1043A0001B6803B11A703C22014BDA7070BC704775
:1043B00000B006406096FF1FF595FF1F2096FF1F77
:1043C000F095FF1F6896FF1F6196FF1FF895FF1F6E
:1043D000F495FF1F6496FF1F00B585B072B61B4BA6
:1043E00070221A7041211A4A11700F21013A11707E
:1043F00080221A701A46137813F0800FFBD0154BE9
:10440000186862B6144B98429CBF00EB80004000D5
:1044100001A90A22FDF7CCFA9DF804307BB908E027
:1044200001A9595C31B19180023201330A2BF7D1D5
:1044300000E0002301335B00084A137003E0074AE1
:1044400053800123ECE705B05DF804FB0000024057
:1044500007000240080002407F9698004C88FF1F2A
:1044600008B503681B68C9B2984708BD08B503685A
:104470001B68C9B2984708BD08B503681B68C9B274
:10448000984708BD08B503681B68C9B2984708BDBE
:1044900008B54B0803F1B76000F55840B0FBF1F0E8
:1044A000FFF7E8FB08BD00BF10B514464B0803F149
:1044B000B76000F55840B0FBF1F0FFF7DBFB20469A
:1044C000FFF740FC10BD00BF08B5FFF76BFC08BD4F
:1044D00008B50846FFF7C6FC08BD00BF08B508468A
:1044E000FFF71AFD08BD00BF08B508461146FFF7E3
:1044F000D5FC08BD08B50846FFF73CFD003018BFE5
:10450000012008BD08B50846FFF756FD003018BF6A
:10451000012008BD08B5FFF745FE08BD08B5FFF747
:104520008BFE08BD08B5FFF74DFE08BD08B5FFF7C7
:1045300017FE08BD08B5FFF799FE08BD08B5FFF7DF
:104540001FFE08BD08B50846FFF758FD012008BD4D
:1045500008B50846FFF752FD012008BD10B5144606
:1045600008461146FFF79AFD204610BD38B50D46A6
:10457000084601F0A7F8044628462146FFF78EFDBD
:10458000204638BD704700BF044B00221A714FF41B
:104590007A7199601A73024A1A6070476C96FF1F0D
:1045A000A85E000080F0004002E000BF81F0004102
:1045B00042001FBF5FEA410392EA030F7FEA226CC9
:1045C0007FEA236C6AD04FEA1262D2EB1363C1BF59
:1045D000D218414048404140B8BF5B42192B88BFC8
:1045E000704710F0004F40F4000020F07F4018BFEB
:1045F000404211F0004F41F4000121F07F4118BF0B
:10460000494292EA030F3FD0A2F1010241FA03FCB2
:1046100010EB0C00C3F1200301FA03F100F000439A
:1046200002D5494260EB4000B0F5000F13D3B0F162
:10463000807F06D340084FEA310102F10102FE2AD1
:1046400051D2B1F1004F40EBC25008BF20F0010041
:1046500040EA03007047490040EB000010F4000FEF
:10466000A2F10102EDD1B0FA80FCACF1080CB2EB82
:104670000C0200FA0CF0AABF00EBC25052421843E1
:10468000BCBFD0401843704792F0000F81F4000186
:1046900006BF80F400000132013BB5E74FEA410359
:1046A0007FEA226C18BF7FEA236C21D092EA030FC5
:1046B00004D092F0000F08BF0846704790EA010F3F
:1046C0001CBF0020704712F07F4F04D1400028BF6C
:1046D00040F00040704712F100723CBF00F500004E
:1046E000704700F0004343F0FE4040F40000704784
:1046F0007FEA226216BF08467FEA23630146420230
:1047000006BF5FEA412390EA010F40F48000704742
:104710004FF0000304E000BF10F0004348BF4042E8
:104720005FEA000C08BF704743F0964301464FF024
:1047300000001CE050EA010208BF70474FF0000380
:104740000AE000BF50EA010208BF704711F00043C1
:1047500002D5404261EB41015FEA010C02BF844691
:104760000146002043F0B64308BFA3F18053A3F5F0
:104770000003BCFA8CF2083AA3EBC25310DB01FA37
:1047800002FC634400FA02FCC2F12002BCF1004FBB
:1047900020FA02F243EB020008BF20F0010070474C
:1047A00002F1200201FA02FCC2F1200250EA4C00A0
:1047B00021FA02F243EB020008BF20EADC707047E6
:1047C0004FF0FF0C1CEAD0521EBF1CEAD15392EAF4
:1047D0000C0F93EA0C0F6FD01A4480EA010C4002D0
:1047E00018BF5FEA41211ED04FF0006343EA50102A
:1047F00043EA5111A0FB01310CF00040B1F5000F6C
:104800003EBF490041EAD3715B0040EA010062F11A
:104810007F02FD2A1DD8B3F1004F40EBC25008BF04
:1048200020F00100704790F0000F0CF0004C08BF22
:1048300049024CEA502040EA51207F3AC2BFD2F1EF
:10484000FF0340EAC250704740F400004FF00003FD
:10485000013A5DDC12F1190FDCBF00F00040704737
:10486000C2F10002410021FA02F1C2F1200200FA75
:1048700002FC5FEA310040F1000053EA4C0308BF3C
:1048800020EADC70704792F0000F00F0004C02BF8D
:10489000400010F4000F013AF9D040EA0C0093F008
:1048A000000F01F0004C02BF490011F4000F013B62
:1048B000F9D041EA0C018FE70CEAD15392EA0C0FD0
:1048C00018BF93EA0C0F0AD030F0004C18BF31F03B
:1048D000004CD8D180EA010000F00040704790F011
:1048E000000F17BF90F0004F084691F0000F91F0B5
:1048F000004F14D092EA0C0F01D142020FD193EA7B
:104900000C0F03D14B0218BF084608D180EA010002
:1049100000F0004040F0FE4040F40000704740F0DE
:10492000FE4040F4400070474FF0FF0C1CEAD052AC
:104930001EBF1CEAD15392EA0C0F93EA0C0F69D008
:10494000A2EB030280EA010C49024FEA402037D073
:104950004FF0805343EA111143EA10130CF000406A
:104960008B4238BF5B0042F17D024FF4000C8B425A
:1049700024BF5B1A40EA0C00B3EB510F24BFA3EB3A
:10498000510340EA5C00B3EB910F24BFA3EB91030A
:1049900040EA9C00B3EBD10F24BFA3EBD10340EA64
:1049A000DC001B0118BF5FEA1C1CE0D1FD2A3FF6AA
:1049B00050AF8B4240EBC25008BF20F0010070475F
:1049C0000CF0004C4CEA50207F32C2BFD2F1FF0302
:1049D00040EAC250704740F400004FF00003013A33
:1049E00037E792F0000F00F0004C02BF400010F4D7
:1049F000000F013AF9D040EA0C0093F0000F01F0EB
:104A0000004C02BF490011F4000F013BF9D041EA0C
:104A10000C0195E70CEAD15392EA0C0F08D142023F
:104A20007FF47DAF93EA0C0F7FF470AF084676E712
:104A300093EA0C0F04D14B023FF44CAF08466EE7EB
:104A400030F0004C18BF31F0004CCAD130F00042B9
:104A50007FF45CAF31F000437FF43CAF5FE700BF11
:104A60004FF0FF3C06E000BF4FF0010C02E000BF3A
:104A70004FF0010C4DF804CD4FEA40024FEA4103DC
:104A80007FEA226C18BF7FEA236C11D001B052EA92
:104A9000530C18BF90EA010F58BFB2EB030088BF58
:104AA000C81738BF6FEAE17018BF40F001007047C7
:104AB0007FEA226C02D15FEA402C05D17FEA236CA9
:104AC000E4D15FEA412CE1D05DF8040B704700BFF0
:104AD000844608466146FFE70FB5FFF7C9FF002887
:104AE00048BF10F1000F0FBD4DF808EDFFF7F4FFC0
:104AF0000CBF012000205DF808FB00BF4DF808ED59
:104B0000FFF7EAFF34BF012000205DF808FB00BF7B
:104B10004DF808EDFFF7E0FF94BF012000205DF89D
:104B200008FB00BF4DF808EDFFF7D2FF94BF01204E
:104B300000205DF808FB00BF4DF808EDFFF7C8FF47
:104B400034BF012000205DF808FB00BF4FEA40029F
:104B5000B2F1FE4F0FD34FF09E03B3EB12620DD9AB
:104B60004FEA002343F0004310F0004F23FA02F015
:104B700018BF404270474FF00000704712F1610FBC
:104B800001D1420205D110F0004008BF6FF0004093
:104B900070474FF00000704770B50F4E0F4D761BF9
:104BA000B61007D0043D0024013455F8043F98475F
:104BB000A642F9D10A4E0B4D761B01F0A5F9B610AD
:104BC00008D0043D0024013455F8043F9847A6421C
:104BD000F9D170BD70BD00BF145F0000145F00000C
:104BE000345F0000145F0000024B0146186800F0BB
:104BF0000BB800BF908CFF1F024B0146186800F0F5
:104C000007BE00BF908CFF1F2DE9F04F01F10B058F
:104C1000162D83B0064627D935F0070527D4A942BB
:104C200025D8304600F0ECFAB5F5FC7F26D2C14F0E
:104C30004FEAD50C07EBCC03DC689C4200F0D28134
:104C40006368E268A16823F00303234430465D688B
:104C5000CA6045F0010591605D6000F0D3FA083448
:104C6000204603B0BDE8F08F1025A942D9D9002411
:104C70000C232046336003B0BDE8F08F5FEA552C6B
:104C800000F08A80BCF1040F00F260814FEA951CAD
:104C90000CF1380C4FEA4C01A64F07EB8101CC68B0
:104CA000A14205D10CE0002B7ADAE468A14207D0DA
:104CB000626822F00302531B0F2BF4DD0CF1FF3C62
:104CC0000CF1010C9B4B3C6903F1080E744500F09C
:104CD0007E81616821F003014A1B0F2A00F3648181
:104CE000002AC3F814E0C3F810E06ADAB1F5007FD7
:104CF00080F03A81C90803EBC1004FEAA1085A6865
:104D00008168A1604FF0010909FA08F848EA020237
:104D1000E0605A608460CC604FEAAC0301209840A8
:104D200090425BD8024206D12CF0030C40000242B4
:104D30000CF1040CFAD007EBCC084446E146E368DA
:104D40009C4207D145E1002A80F25681DB689C42F3
:104D500000F03F81596821F003014A1B0F2AF2DD60
:104D60001C46D3F80CC054F8088F591945F00109B6
:104D700042F00105C3F804903046C8F80CC0CCF8E6
:104D8000088079613961C1F80CE0C1F808E04D6034
:104D90008A5000F037FA63E77E214FF03F0C7BE743
:104DA0002244E3685068A16840F00105CB603046BA
:104DB0009960556000F026FA0834204603B0BDE83B
:104DC000F08F214430464B6843F001034B6000F004
:104DD00019FA0834204603B0BDE8F08FBC68636858
:104DE00023F00309A94504D3C5EB09030F2B00F3F6
:104DF0009180514B514A19681368013305EB010A40
:104E000004EB090B00F061810AF5805A0AF10F0AE0
:104E10002AF47F6A2AF00F0A30465146019200F0C8
:104E2000E1FBB0F1FF3F8046019A00F0008183452D
:104E300000F2FA80DFF810C1DCF80030C3455344BB
:104E4000CCF8003000F04A8112683C4901321BBFA7
:104E5000CBEB080B5B44C1F80080CCF8003018F0B5
:104E6000070300F01381C3F10802C3F58053904497
:104E70000833C244CAF30B0ACAEB030A5146304650
:104E8000CDF804C000F0AEFB431CDDF804C000F018
:104E90003581C8EB0002524442F00102DCF80030D8
:104EA000C7F808805344BC42C8F80420CCF800304E
:104EB000DFF894A015D0B9F10F0F40F2EA806168D5
:104EC000A9F10C0222F0070201F0010EA118052041
:104ED00042EA0E0E0F2AC4F804E04860886000F22F
:104EE0001181174ABC6811688B4288BF1360154A4C
:104EF00011688B4288BF1360626822F003029542FA
:104F0000C5EB020301D80F2B04DC304600F07AF920
:104F10000024A5E6621943F0010345F00105656030
:104F20003046BA60536000F06DF90834204603B093
:104F3000BDE8F08F948CFF1F8496FF1FA090FF1F89
:104F40008096FF1F7C96FF1F8896FF1FBCF1140FF1
:104F500061D9BCF1540F00F28F804FEA153C0CF17F
:104F60006E0C4FEA4C0197E64B0A042B58D9142BD0
:104F700000F2AE8003F15B02500007EB8000DFF827
:104F8000BC818368834200F08A805A6822F0030261
:104F9000914202D29B689842F7D1D9687A68E16061
:104FA000A3608C60DC60B7E6611942F0010745F050
:104FB00001056560304659611961C1F80CE0C1F81E
:104FC00008E04F608A50083400F01CF948E65A683F
:104FD000A2E609F1010919F0030F04F108047FF4B6
:104FE000AEAE2DE004F108036469A34208BF0CF1E2
:104FF000020C3FF467AE23E619441C464868DB68A0
:1050000054F8082F40F001054D603046D3609A6097
:1050100000F0F8F824E60CF15B0C4FEA4C013BE69B
:105020008A0938325000A8E7BC423FF403AFBC689D
:10503000626822F0030262E7D8F8008098457BD1CD
:105040001CF0030FA8F108030CF1FF3CF4D17B68BE
:1050500023EA00037B60400098423FF6BFAE002881
:105060003FF4BCAE0342CC467FF465AE4000034241
:105070000CF1040CFAD05EE6BCF5AA7F1AD84FEA10
:10508000D53C0CF1770C4FEA4C0105E64FF4805308
:10509000EFE60123C8F80430444600222FE79110C0
:1050A0000120D8F8042000FA01F10A43C8F80420CE
:1050B000194674E740F254539C451BD84FEA954C6F
:1050C0000CF17C0C4FEA4C01E6E50AF1100AA3E66C
:1050D000542B1FD80A0B6E3250004EE7CBF30B0156
:1050E00000297FF4B1AE0AEB0901BA6841F0010171
:1050F0005160F6E6FC214FF07E0CCDE501224FF029
:10510000000ACBE604F10801304600F081FBDAF832
:105110000030E6E6B3F5AA7F03D8CA0B7732500019
:105120002BE740F25452934203D88A0C7C32500051
:1051300023E7FC207E2220E77B688CE7948CFF1F0E
:105140008842F0B410D98C18A0420DD28518531E95
:1051500042B121462A4611F8014D02F8014D013BAA
:105160005C1CF8D1F0BC70470F2A3FD940EA01031C
:105170009B073FD1A2F110073F0900EB071610363D
:105180000C46034625681D6065685D60A5689D60E6
:10519000E568DD601033B34204F11004F2D17B1CEA
:1051A00002F00F0C1B01BCF1030F1944034423D977
:1051B0000E461D466446043C56F8047B45F8047BC5
:1051C000032CF8D8ACF1040424F00304043402F0F6
:1051D000030223442144002AC4D01A4411F8014B8D
:1051E00003F8014B9342F9D1F0BC70470346002A03
:1051F000F3D1B7E70346F0E76246002AEDD1B1E705
:10520000704700BF704700BF024B0A46014618684E
:1052100000F002B8908CFF1F2DE9F04F0C4683B0D0
:1052200090468146002900F0E280FFF7E9FF08F18F
:105230000B0654F8043C162E23F00305A4F10807CE
:105240004BD810210E46B0454CD88D4278DADFF8A5
:1052500090B3DBF808E07819864500F0CE8042680C
:1052600022F0010C8444DCF804C01CF0010F7AD059
:1052700000221046DB0700F1928054F8083CC3EB93
:10528000070ADAF8043023F003032B4488B370458F
:1052900000F0ED8002EB030E8E452ADBC3688268C6
:1052A0005746D3609A6057F8081FDAF80C30CB6085
:1052B0002A1F242A996000F22681132A40F2B38023
:1052C0002368CAF808306368CAF80C301B2A00F259
:1052D000308108340AF11003A6E026F00706002EFC
:1052E0003146B0DA0C230020C9F8003003B0BDE825
:1052F000F08F8B4253DB5746DAF80C1057F8080F43
:105300002A1F242AC160886000F20981132A40F212
:1053100004812168CAF808106168CAF80C101B2AB9
:1053200000F21C8108340AF11002216811606168E2
:105330005160A16891601D46DAF804303C4657463A
:10534000AA1B0F2A03F0010319D82B433D447B60AD
:105350006B6843F001036B604846FFF753FF20463C
:1053600003B0BDE8F08F22F0030202EB050C8C4580
:1053700080DBC26881686546CA609160E0E7B91960
:1053800042F001001E430A447E604860536843F0C7
:10539000010308315360484600F03AFADCE7414621
:1053A0004846FFF731FC8046D0B154F8043C23F066
:1053B00001023A44A0F10801914200F09E802A1FA8
:1053C000242A50D8132A23D803462246116819608C
:1053D0005168596092689A602146484600F018FA70
:1053E0004846FFF70FFF404603B0BDE8F08F114677
:1053F00003B0BDE8F04FFFF707BCDEF8042022F051
:105400000302501906F1100C604519DA704631E7B5
:1054100023680360636843601B2A63D800F10803B4
:1054200004F10802D2E73B4622681A6062685A60BB
:10543000A2689A603C467546DAF8043057467FE722
:105440003744831B43F00103CBF808707B6054F8AA
:10545000043C03F001031E43484644F8046CFFF784
:10546000D1FE20467CE72146FFF76AFEB4E702EB57
:10547000030C06F110029445FFF63BAF5746DAF8ED
:105480000C3057F8081F2A1F242ACB60996000F2BD
:105490008780132A78D92368CAF808306368CAF865
:1054A0000C301B2A00F2858008340AF110032268B0
:1054B0001A6062685A60A2689A600AEB0603C6EB3B
:1054C0000C0242F00102CBF808305A60DAF80430DE
:1054D00003F001031E434846CAF80460FFF792FE3A
:1054E00038463DE7A3688360E368C360242A2CD074
:1054F00000F1100304F1100268E750F8042C22F0C8
:10550000030215441CE72146384675463C46FFF722
:1055100017FE5746DAF8043012E73A4605E7214607
:1055200038461D463C46FFF70BFE5746DAF8043076
:1055300006E7A368CAF81030E368CAF81430242AD2
:1055400018D010340AF118036EE723690361636908
:10555000436104F1180200F1180337E7A168CAF8A3
:105560001010E168CAF81410242A0FD010340AF180
:105570001802DAE62369CAF818306369CAF81C30E1
:1055800018340AF120034FE73B4690E72269CAF836
:1055900018206269CAF81C2018340AF12002C4E6F7
:1055A00021463846CDF804C0FFF7CAFDDDF804C037
:1055B00083E7A368CAF81030E368CAF81430242AD5
:1055C00003D010340AF1180371E72369CAF81830C0
:1055D0006369CAF81C3018340AF1200367E700BF7A
:1055E000948CFF1F38B5074C0023054608462360FE
:1055F000FCF7B6F9431C00D038BD2368002BFBD064
:105600002B6038BDC496FF1F80EA0102844612F069
:10561000030F4FD111F0030F32D14DF8044D11F0AB
:10562000040F51F8043B0BD0A3F101329A4312F05E
:10563000803F04BF4CF8043B51F8043B16D100BF37
:1056400051F8044BA3F101329A4312F0803FA4F1C8
:1056500001320BD14CF8043BA24312F0803F04BF4F
:1056600051F8043B4CF8044BEAD023460CF8013BBC
:1056700013F0FF0F4FEA3323F8D15DF8044B704766
:1056800011F0010F06D011F8012B0CF8012B002AA4
:1056900008BF704711F0020FBFD031F8022B12F093
:1056A000FF0F16BF2CF8022B8CF8002012F47F4F4E
:1056B000B3D1704711F8012B0CF8012B002AF9D156
:1056C000704700BF20F0030110F00300C0F100009C
:1056D00051F8043B00F1040C4FEACC0C6FF00002CF
:1056E0001CBF22FA0CF213434FF0010C4CEA0C2CB5
:1056F0004CEA0C4CA3EB0C0222EA030212EACC1295
:1057000004BF51F8043B0430F4D013F0FF0F1FBF67
:10571000013013F47F4F013013F47F0F18BF0130B5
:10572000704700BF024B13B1024800F005B8704744
:1057300000000000455700000146002002460346D5
:1057400000F034B938B5094D094C641BA41018BFDA
:1057500005EB840505D0013C55F8043D9847002C25
:10576000F9D1BDE8384000F0E5BB00BF0000000003
:1057700000000000F8B5234D0F460446FFF740FD3A
:10578000AB685E6826F00306F11B01F6EF7121F4A9
:105790007F6121F00F01A1F58057B7F5805F07DB2E
:1057A00020460021FFF71EFFAB683344984204D027
:1057B0002046FFF727FD0020F8BD20467942FFF77D
:1057C00011FF01300DD0104BAA681968F61B46F086
:1057D00001062046C91B56601960FFF713FD012022
:1057E000F8BD20460021FFF7FDFEAB68C21A0F2A64
:1057F000DEDD064D04492D6842F00102401B5A606F
:105800000860D5E7948CFF1F8896FF1FA090FF1FAC
:105810002DE9F0410D460646002955D0FFF7F0FC72
:1058200055F8041CDFF874C121F00103A5F1080448
:10583000E218DCF808005768904227F0030769D0A7
:1058400011F00101576032D00021D0194068C00723
:1058500006D43B44906800294ED0D268C260906064
:1058600043F001026260E350E1B9B3F5007F2DD34C
:105870005A0A042A6AD89809383041000CEB810C86
:105880004649DCF80820624566D0516821F00301E2
:105890008B4202D292689445F7D1D368E360A2604C
:1058A0009C60D4603046BDE8F041FFF7ABBC55F8D2
:1058B000085C641B0CF10808A06840452B4443D0E9
:1058C000E568C560A860C0E7BDE8F081DB080CEBC7
:1058D000C3020125DCF804009168A1609B1005FA61
:1058E00003F31843E260CCF8040094603046CC60C7
:1058F000BDE8F041FFF786BC294DA842ADD143F089
:105900000102CCF81440CCF81040E060A060626066
:10591000E350C7E71F44CB0707D455F8083CE41A07
:105920001F44A268E368D3609A601E4B1B6847F06F
:1059300001029F426260CCF80840B3D31A4B304654
:105940001968FFF717FFADE701217EE7142A0CD88D
:1059500002F15B00410091E74B688010012505FAD8
:1059600000F003434B60134698E7542A03D8180B02
:105970006E30410082E7B2F5AA7F03D8D80B7730AA
:1059800041007BE740F254518A4203D8980C7C30A6
:10599000410073E7FC217E2070E700BF948CFF1F5D
:1059A0009C8CFF1F9C90FF1F8496FF1FF0B5274C17
:1059B0002668D6F8484185B00746002C41D0656876
:1059C0001F2D1EDD224818B94FF0FF3005B0F0BD85
:1059D0004FF4C870039102920193FFF705F9039900
:1059E000029A019B04460028EED0D6F84851256063
:1059F000002060600546C6F84841C4F88801C4F834
:105A00008C013FB9AB1C00200135656044F82310C0
:105A100005B0F0BD04EB85004FF0010CC0F8882004
:105A2000D4F888610CFA05F21643022FC4F8886195
:105A3000C0F80831E6D1D4F88C311A43C4F88C216F
:105A4000E0E706F5A674C6F84841B8E7045F000031
:105A5000E94B00000101010100000000000000000E
:105A60000000000000000000F81F0000F81F000008
:105A7000F81F0000F81F0000624C353A00000000DB
:105A8000624C543A000000006252313A00000000BB
:105A90006252543A000000002E76616C3D00000016
:105AA0007661300021212120424154544552592031
:105AB0004C4F572C2053485554444F574E212121C9
:105AC00000000000564D4450565F317C315F564D0A
:105AD0004450560D0A00000048657852656D6F7499
:105AE00065206465627567206D6F6465207265610D
:105AF00064792E2E2E0000004E657874696F6E203A
:105B0000627574746F6E7320617474616368656428
:105B100000000000766131006255703A000000001C
:105B200062446F776E3A0000624C6566743A00001A
:105B30006252696768743A0062456E7465723A0031
:105B40006255700062446F776E000000624C6566BB
:105B500074000000625269676874000062456E74E8
:105B6000657200004C3500004C54000052310000BA
:105B7000525400FF626B636D643D31007061676574
:105B8000203000FF564D4450455F00003A323A0045
:105B90003A0000005F564D4450450000564D4450B9
:105BA000435F00005F564D4450430D0A0000000063
:105BB0004572726F723A20417474656D707420740E
:105BC0006F20736574206120726561642D6F6E6C47
:105BD00079207661726961626C65206F7220646100
:105BE00074612074797065206E6F742073757070A5
:105BF0006F727465640D0A00000000000000000070
:105C0000B1130000A9130000000000000000000014
:105C10002913000021130000050E08090D0C0607CA
:105C20000F0400130393050E08090D0C06070F045B
:105C3000FFFFC585848687C4FFFF001303931A9274
:105C4000170000004008FE4340A004404408FE4303
:105C500044A004400018FE4300C004403000FE434E
:105C6000309004403400FE43349004401C18FE433E
:105C70001CC004401018FE4310C004400818FE4326
:105C800008C004400C18FE430CC004400C10FE4336
:105C90000CB004401010FE4310B004401810FE4336
:105CA00018B004401C10FE431CB004401410FE4306
:105CB00014B004400418FE4304C004400010FE4326
:105CC00000B004400008FE4300A004400408FE4366
:105CD00004A004400C08FE430CA004400808FE4346
:105CE00008A004401418FE4314C004401818FE43D2
:105CF00018C004400410FE4304B004400810FE43E2
:105D000008B004401400FE43149004404C08FE43C5
:105D10004CA004400420FE4304D004402410FE4361
:105D200024B004402010FE4320B004402810FE435D
:105D300028B004402C10FE432CB004400020FE4349
:105D400000D004404808FE4348A004401000FE4331
:105D500010900440FFFFFFFF000000000000000063
:105D6000253600003D360000F53500000536000000
:105D7000FD3500000D36000071350000893500004A
:105D8000A9350000B1350000BD350000C93500005F
:105D9000D5350000E5350000153600001D36000041
:105DA000413500004D3500005935000065350000D3
:105DB0004D360000313600000000000000000000F9
:105DC000693700008137000039370000493700008B
:105DD0004137000051370000B5360000CD360000D5
:105DE000ED360000F5360000013700000D370000E9
:105DF00019370000293700005937000061370000CB
:105E000085360000913600009D360000A93600005E
:105E100091370000753700000D0A0000FFFFFFFFFB
:105E200000000000000000000539000011390000EA
:105E3000DD380000E5380000ED380000F5380000DE
:105E4000FD380000000000000015191500010000D9
:105E5000C087FF1F1200000000020000EC87FF1F38
:105E600043000000000300004888FF1F00000000FE
:105E700001030904D487FF1F000000000203090486
:105E80003088FF1F00000000030309044C88FF1F37
:105E90000000000000000000000000000000000002
:105EA0000000000000000000454500005D450000C6
:105EB00015450000254500001D4500002D4500004A
:105EC00091440000A9440000C9440000D1440000EE
:105ED000DD440000E9440000F544000005450000F1
:105EE000354500003D450000614400006D44000060
:105EF00079440000854400006D45000051450000D4
:105F0000430000006888FF1FF8B500BFF8BC08BC5C
:105F10009E4670472557000035040000ED0C000038
:105F20001113000069360000AD3700002139000070
:045F3000894500009F
:045F3400F8B500BFFD
:105F380005000000443100004430000044320000F5
:105F4800443400004433000004000000C090FF1FE8
:105F58009892FF1F0493FF1FE090FF1FC892FF1F36
:105F68001C93FF1FA091FF1FB891FF1F3893FF1FBD
:105F78000000000000000000FFFF00000A0400000D
:105F8800C896FF1F01080000FFFFFFFF090A000075
:105F98001201010102000040C01683040002010240
:105FA8000301000018035400650065006E007300CB
:105FB80079006400750069006E006F0009024300F3
:105FC800020100C032090400000102020100052498
:105FD800001001052401010104240206052406001D
:105FE800010705820310004009040100020A0000AD
:105FF8000007050302400000070584024000000076
:10600800160355005300420020005300650072003B
:10601800690061006C000000040309040C0300001F
:106028000000000000000000000000000000000068
:10603800000000000000000000000000548BFF1F5B
:10604800BC8BFF1F248CFF1F000000000000000015
:106058000000000000000000000000000000000038
:10606800000000000000000000000000005F0000C9
:106078000000000000000000000000000000000018
:106088000000000000000000000000000000000008
:1060980000000000000000000000000000000000F8
:1060A80000000000000000000000000000000000E8
:1060B80000000000000000000000000000000000D8
:1060C80000000000000000000000000000000000C8
:1060D80000000000000000000000000000000000B8
:1060E80001000000000000000E33CDAB34126DE655
:1060F800ECDE05000B0000000000000000000000BE
:106108000000000000000000000000000000000087
:106118000000000000000000000000000000000077
:106128000000000000000000000000000000000067
:106138000000000000000000000000000000000057
:106468006888FF1F0000000000000000948CFF1FD8
:10647800948CFF1F9C8CFF1F9C8CFF1FA48CFF1FFC
:10648800A48CFF1FAC8CFF1FAC8CFF1FB48CFF1FAC
:10649800B48CFF1FBC8CFF1FBC8CFF1FC48CFF1F5C
:1064A800C48CFF1FCC8CFF1FCC8CFF1FD48CFF1F0C
:1064B800D48CFF1FDC8CFF1FDC8CFF1FE48CFF1FBC
:1064C800E48CFF1FEC8CFF1FEC8CFF1FF48CFF1F6C
:1064D800F48CFF1FFC8CFF1FFC8CFF1F048DFF1F1B
:1064E800048DFF1F0C8DFF1F0C8DFF1F148DFF1FC8
:1064F800148DFF1F1C8DFF1F1C8DFF1F248DFF1F78
:10650800248DFF1F2C8DFF1F2C8DFF1F348DFF1F27
:10651800348DFF1F3C8DFF1F3C8DFF1F448DFF1FD7
:10652800448DFF1F4C8DFF1F4C8DFF1F548DFF1F87
:10653800548DFF1F5C8DFF1F5C8DFF1F648DFF1F37
:10654800648DFF1F6C8DFF1F6C8DFF1F748DFF1FE7
:10655800748DFF1F7C8DFF1F7C8DFF1F848DFF1F97
:10656800848DFF1F8C8DFF1F8C8DFF1F948DFF1F47
:10657800948DFF1F9C8DFF1F9C8DFF1FA48DFF1FF7
:10658800A48DFF1FAC8DFF1FAC8DFF1FB48DFF1FA7
:10659800B48DFF1FBC8DFF1FBC8DFF1FC48DFF1F57
:1065A800C48DFF1FCC8DFF1FCC8DFF1FD48DFF1F07
:1065B800D48DFF1FDC8DFF1FDC8DFF1FE48DFF1FB7
:1065C800E48DFF1FEC8DFF1FEC8DFF1FF48DFF1F67
:1065D800F48DFF1FFC8DFF1FFC8DFF1F048EFF1F16
:1065E800048EFF1F0C8EFF1F0C8EFF1F148EFF1FC3
:1065F800148EFF1F1C8EFF1F1C8EFF1F248EFF1F73
:10660800248EFF1F2C8EFF1F2C8EFF1F348EFF1F22
:10661800348EFF1F3C8EFF1F3C8EFF1F448EFF1FD2
:10662800448EFF1F4C8EFF1F4C8EFF1F548EFF1F82
:10663800548EFF1F5C8EFF1F5C8EFF1F648EFF1F32
:10664800648EFF1F6C8EFF1F6C8EFF1F748EFF1FE2
:10665800748EFF1F7C8EFF1F7C8EFF1F848EFF1F92
:10666800848EFF1F8C8EFF1F8C8EFF1F948EFF1F42
:10667800948EFF1F9C8EFF1F9C8EFF1FA48EFF1FF2
:10668800A48EFF1FAC8EFF1FAC8EFF1FB48EFF1FA2
:10669800B48EFF1FBC8EFF1FBC8EFF1FC48EFF1F52
:1066A800C48EFF1FCC8EFF1FCC8EFF1FD48EFF1F02
:1066B800D48EFF1FDC8EFF1FDC8EFF1FE48EFF1FB2
:1066C800E48EFF1FEC8EFF1FEC8EFF1FF48EFF1F62
:1066D800F48EFF1FFC8EFF1FFC8EFF1F048FFF1F11
:1066E800048FFF1F0C8FFF1F0C8FFF1F148FFF1FBE
:1066F800148FFF1F1C8FFF1F1C8FFF1F248FFF1F6E
:10670800248FFF1F2C8FFF1F2C8FFF1F348FFF1F1D
:10671800348FFF1F3C8FFF1F3C8FFF1F448FFF1FCD
:10672800448FFF1F4C8FFF1F4C8FFF1F548FFF1F7D
:10673800548FFF1F5C8FFF1F5C8FFF1F648FFF1F2D
:10674800648FFF1F6C8FFF1F6C8FFF1F748FFF1FDD
:10675800748FFF1F7C8FFF1F7C8FFF1F848FFF1F8D
:10676800848FFF1F8C8FFF1F8C8FFF1F948FFF1F3D
:10677800948FFF1F9C8FFF1F9C8FFF1FA48FFF1FED
:10678800A48FFF1FAC8FFF1FAC8FFF1FB48FFF1F9D
:10679800B48FFF1FBC8FFF1FBC8FFF1FC48FFF1F4D
:1067A800C48FFF1FCC8FFF1FCC8FFF1FD48FFF1FFD
:1067B800D48FFF1FDC8FFF1FDC8FFF1FE48FFF1FAD
:1067C800E48FFF1FEC8FFF1FEC8FFF1FF48FFF1F5D
:1067D800F48FFF1FFC8FFF1FFC8FFF1F0490FF1F0C
:1067E8000490FF1F0C90FF1F0C90FF1F1490FF1FB9
:1067F8001490FF1F1C90FF1F1C90FF1F2490FF1F69
:106808002490FF1F2C90FF1F2C90FF1F3490FF1F18
:106818003490FF1F3C90FF1F3C90FF1F4490FF1FC8
:106828004490FF1F4C90FF1F4C90FF1F5490FF1F78
:106838005490FF1F5C90FF1F5C90FF1F6490FF1F28
:106848006490FF1F6C90FF1F6C90FF1F7490FF1FD8
:106858007490FF1F7C90FF1F7C90FF1F8490FF1F88
:106868008490FF1F8C90FF1F8C90FF1F0000020078
:04687800FFFFFFFF20
:00000001FF
